:020000040800F2
:1000000008080020A1010008893200088132000898
:10001000853200088D0B0008B53300080000000091
:100020000000000000000000000000009132000805
:10003000DD0C0008000000008D3200089532000839
:10004000BB010008BB010008BB010008BB010008A0
:10005000BB010008BB010008BB010008BB01000890
:10006000BB010008BB010008BB010008D10C00085F
:10007000BB010008BB010008BB010008BB01000870
:10008000BB010008BB010008BB010008BB01000860
:10009000BB010008BB010008BB010008BB01000850
:1000A000BB010008BB010008BB010008BB01000840
:1000B000BB010008BB010008BB010008BB01000830
:1000C000BB010008BB010008BB010008BB01000820
:1000D000BB010008BB010008BB010008A9330008F0
:1000E000BB010008BB010008BB01000800F002F8DA
:1000F00000F047F80AA090E8000C82448344AAF17B
:100100000107DA4501D100F03CF8AFF2090EBAE878
:100110000F0013F0010F18BFFB1A43F0010318473B
:10012000684E0000884E0000103A24BF78C878C19D
:10013000FAD8520724BF30C830C144BF04680C60ED
:10014000704700000023002400250026103A28BF35
:1001500078C1FBD8520728BF30C148BF0B60704739
:10016000662904F0AC86002070471FB500F002FB42
:1001700004000020002104F047F8E0601FBD10B526
:1001800010BD00F0F7FB1146FFF7EFFF03F03AF95F
:1001900000F015FC03B4FFF7F2FF03BC00F058FCBD
:1001A0000948804709480047FEE7FEE7FEE7FEE70B
:1001B000FEE7FEE7FEE7FEE7FEE7FEE70448054947
:1001C000054A064B7047000099320008ED00000810
:1001D000080200200808002008040020080400206D
:1001E0000FB41CB5074B06AA7B44694600900598DE
:1001F00000F0A7FA0020694600F0B6FA1CBC5DF8D2
:1002000014FB00007D0500002DE9F0474FF0000AC7
:1002100089460446C0F820A02046E16888470028A7
:1002200076D0252806D0D4E901219047206A401CC9
:100230002062F1E7E168204600258847C4F81CA049
:1002400006460027C4F818A02A2E09D0304603F02D
:10025000D3FF38B304EB8708303EC8F8186019E0C4
:1002600059F8041B204604EB87029161E168884736
:10027000012F064618D1E069002820DA25F0200574
:100280001DE0D8F8180000EB800006EB4000303885
:10029000C8F818002046E1688847064603F0ACFF1E
:1002A0000028EED1012F0AD02E2E08D12046E16879
:1002B00088477F1C0646022F45F02005C4DBA06955
:1002C000002803DA404245F00105A061E80701D0AB
:1002D00025F01005B6B1A6F14100192802D8203644
:1002E00045F400654A463146204625604D46FFF7F5
:1002F00037FF58B1012806D0ED1D25F0070000F1A9
:10030000080989E704E005F1040985E730468AE732
:10031000206ABDE8F0877047704770472DE9FF4FAE
:100320000C461E464FF0FF378BB0D2E90001DDF8D6
:1003300060800A908A46C1F30A5505B93D460021FE
:1003400008464FF00000BAF1000F00F4400005DA53
:1003500000EB80004FF4400101EA50004FEA905951
:10036000B9F1010F00DDB9460A9850EA4A000ED0F3
:1003700044F61050A5F2FF3545432F14B8F1000F95
:100380001ED07542291E1EDDC9F100021CE0B8F125
:10039000010F4FF0000001D0302103E0F24305E0EF
:1003A0002154401CB042FBDB304600220021215486
:1003B0000B99C1F80880C1E900200FB0BDE8F08FAB
:1003C000BD1B6D1CDEE74A4600DA694206A800F054
:1003D0005BFA06AB93E8070003AB83E807005046DF
:1003E0000A9903F02DFB8DE80700A0F500501F3897
:1003F00000900398002D0ADD42F21F014A4608448E
:10040000002303A90390684603F096FD09E0A0F5D8
:1004100000504A461F38002303A90390684603F0A2
:10042000A0FD8DE807000004000C03D04FF0FF3062
:10043000410800E01046B8F1000F03D000220092FE
:1004400015461EE0751E05D400F098F9303262554D
:100450006D1EF9D5B3460122084302D000227F1C4D
:1004600004E02078302801D100227F1E002A09975D
:1004700084D01DE0112D07DA00F080F9303262558A
:100480006D1C50EA0102F5D1084302D00098C8B1B2
:100490000EE00021681E05E0235C625C6354225478
:1004A000401E491C8142F7DBAB46A81B401E099049
:1004B000002004F80B000B98099AC0F80880C0E9E6
:1004C000002B7AE711264FF0000857E72DE9F04F8F
:1004D00088460446D21D22F0070191B0D1E90001FF
:1004E000CDE90A0103F074FE02460B98C00F01D05B
:1004F0002D2007E02068810701D52B2002E0202174
:1005000001EAC000032A099001D0072A05DB03464F
:100510004146204600F078F90BE12078800601D5AD
:10052000E06900E00620B8F1650F814606D0B8F119
:10053000660F18D0B8F1670F70D131E00020B9F123
:10054000110F009001DB112301E009F101030AAA58
:1005500001A90CA8FFF7E2FEDDE90C70002609F105
:100560000105834647E001204B4600904FF00047CD
:100570000AAA01A90CA8FFF7D1FEDDE90DB00C997C
:100580005D46002610B909F101000D18B9EB050010
:1005900003D4C0F1FF3609F10105A5EB09002BE0FA
:1005A000B9F1010F01DA4FF001090020B9F1110F83
:1005B0000090484601DD112300E003460AAA01A984
:1005C0000CA8FFF7ABFEDDE90C704D460026834614
:1005D000207800070AD4AB4500DA5D4601A8012D5A
:1005E00004DD411911F8011C302907D04F4502DA0A
:1005F00017F1040F04DA012082460FE06D1EEEE7CA
:10060000002F02DCED1B3E4403E0781CA84200DD15
:100610007D1CB81B00F1010A4FF00047207800074D
:1006200003D4AA4501DB4FF0FF3A0021B7F1004F98
:100630000DF143088DF8431024D002202B23002F06
:1006400001DA7F422D230A21021EA0F1010000DC05
:100650005FB197FBF1FC97FBF1F201FB1C7C1746A5
:100660000CF1300C08F801CDEEE7A8F101000370A1
:100670002188090501D5452100E06521A0F1010887
:1006800000F8011C09980FA9A1EB0807FF1D00B194
:100690000120411901EBEA70A1693844081A401E93
:1006A000A0612078C00602D42046AFF300800998EC
:1006B00028B1D4E901219047206A401C20622078AB
:1006C000C00622D52046AFF300801EE0002E04DBDA
:1006D000B34502DD01A8805D00E03020D4E90121AE
:1006E0009047206A401C2062761CAAF101005FEA54
:1006F000000A0AD100F03EF8C0680168405CD4E905
:1007000001219047206A401C2062281EA5F10105A6
:10071000DCDC07E0D4E9012118F8010B9047206ADE
:10072000401C2062381EA7F10107F3DC2046AFF31E
:100730000080032011B041E601694A1C026108787B
:10074000704700B58FB0CDE9013100210591054911
:100750007944CDE9031011466846FFF755FD0FB007
:1007600000BD0000E5FFFFFF0A6802F8010B0A6008
:1007700070470000004870474000002030B5B0F1DD
:100780000A0271F100034FEA900E4EEA817EB0EB4F
:100790000E0061EB91014FEA101E4EEA017E10EB54
:1007A0000E0041EB11114FEA102E4EEA016E10EBD4
:1007B0000E0041EB11214FEA104E4EEA014E10EBB4
:1007C0000E0041EB1141401841F100014FEAD00009
:1007D00040EA41704FEAD1014FEA810444EA907443
:1007E00010EB800544EB01046D1944EB0404521B2B
:1007F000A3414FF0000348BF0A3200D530BD401C72
:1008000041F1000130BD00002DE9F0411F460446D2
:1008100003260168072A01F4006004DB08B116A56D
:1008200005E016A503E008B115A500E015A521F027
:1008300010002060A069C01EA0610FB1401EA06121
:100840002046AFF300804FB1D4E9012138469047EC
:10085000206A401C2062C01C206206E0206AFAE781
:10086000D4E9012115F8010B9047761EF8D22046F5
:10087000AFF30080BDE8F0814E414E006E616E0026
:10088000494E4600696E66002DE9F04781461646DE
:100890008AB0354878440DC88DE80D003248784458
:1008A000801C03AC0DC884E80D0041F69B30084461
:1008B000372190FBF1F290FBF1F5A5F1800501FBEA
:1008C00012041B3C02D56442012000E00020DFF846
:1008D00098A080460027FA44AAF1BE0A0EE0E0077D
:1008E0000AD03246684607EB470101230AEB810133
:1008F00003F037FB8DE8070064107F1C002CEED15D
:10090000194F7F44AE3F19E0E80715D007EB0410FC
:100910000DF1180A90E80E008AE80E00C068F04257
:1009200001D1981908903246012306A903A803F0C3
:1009300018FB03AB83E807006D10641C002DE3D1A6
:100940004FF0010332466946B8F1000F03A802D008
:1009500003F0F2FA01E003F004FBC9E90001C9F871
:1009600008200AB0BDE8F087A8460000004870479C
:10097000200000207546FFF7F9FFAE4605006946E6
:10098000534620F00700854618B020B5FFF716FC47
:10099000BDE820404FF000064FF000074FF0000880
:1009A0004FF0000BAC46ACE8C009ACE8C009ACE8BD
:1009B000C009ACE8C00921F007018D46704710B5A9
:1009C0000446AFF300802046BDE81040FFF7E2BBCD
:1009D0004FF0013C50F8042B51F8043B9A4221D1CE
:1009E000A2EB0C03934313EACC1317D150F8042B5A
:1009F00051F8043B9A4215D1A2EB0C03934313EA3E
:100A0000CC130BD150F8042B51F8043B9A4209D176
:100A1000A2EB0C03934313EACC13DBD04FF000009E
:100A2000704700BFD01A01BAB1FA81F101F0180184
:100A300022FA01F0CB40DBB2C0B2C01AC1F12001F2
:100A40002CFA01F3D11A914311EAC311E6D1704790
:100A500001491820ABBEFEE72600020070470000E7
:100A60000146406A826A12F0500F03D0006A026B9E
:100A7000084610470168826A42F4007282628968FF
:100A800001F46021B1F5602F01D1017B11B100F0BB
:100A9000F3B900BF816A21F480718162816AC9045F
:100AA00048BF00F0E9B9816A41F00101816200F0BC
:100AB000E3B90000406A816A41F040018162C16A85
:100AC00041F00401C16200F0DBB90000406A00F0AF
:100AD000D5B90000B0B582B004460020019021686D
:100AE0008A68D2074FD1886840F00100886040F2E0
:100AF0001800C2F2000000684DF68361C4F21B3199
:100B0000A0FB0101880C01900198A0B10198013867
:100B10000190019878B1019801380190019850B185
:100B2000019801380190019828B10198013801908D
:100B300001980028EAD100F0E3FE21688968C9071E
:100B40001CD1054603E000BF8068C0071AD100F041
:100B5000D7FE411B20680329F6D38168C907F3D16A
:100B6000A06A40F01000A062E06A40F00100E0627C
:100B7000002084F82400012002B0B0BD002002B0A3
:100B8000B0BD00BF002002B0B0BD0000FEE7000015
:100B90002DE9F04F81B0814600880E46009103F0A8
:100BA0007DFD0023C3F6F873002203F08BFD46F2AF
:100BB000666BC4F20A0B4FF066325B4603F082FDAF
:100BC0004FF6006AC4F2AF0A0022534603F00CFC51
:100BD00040F20008C2F200080446D8E900050F46BA
:100BE000294603F087FF03F059FF02460B462046D3
:100BF000394603F067FD044628460F4603F04EFFD2
:100C000002460B462046394603F0EEFB03F012FB8A
:100C1000B9F802103060084603F040FD00230022BE
:100C2000C3F6F87303F04EFD4FF066325B4603F0F7
:100C300049FD0022534603F0D7FB0446D8E90006DD
:100C40000D46314603F056FF03F028FF07468A465B
:100C5000204629463A46534603F034FD05463046C1
:100C60008B4603F01BFF0446884628465946224619
:100C7000434603F0B9FB03F0DDFAB9F80410009D18
:100C80006860084603F00AFD00230022C3F6F873EB
:100C900003F018FD46F266634FF06632C4F20A03B1
:100CA00003F010FD4FF600630022C4F2AF0303F01F
:100CB0009BFB3A46534603F005FD2246434603F0AC
:100CC00093FB03F0B7FAA86001B0BDE8F08F000015
:100CD00040F27410C2F2000000F088BB70470000C0
:100CE000EFF3108072B600BFFEE7000010B581B0D0
:100CF0000022009290F82420012A03D10221084604
:100D000001B010BD4B680122062B80F8242017D8B3
:100D1000D0F800C003EB83035A1F1F23DCF834E034
:100D200003FA02F40B682EEA040403FA02F22243E7
:100D3000CCF83420092B03EB430219D936E000BF6D
:100D4000D0F800C00C2B03EB83021DD8233A1F23DD
:100D5000DCF830E003FA02F40B682EEA040403FA2C
:100D600002F22243CCF83020092B03EB43021DD8BA
:100D7000DCF81030072489689440A343914019435C
:100D8000CCF81010002130E0413A1F23DCF82CE0B1
:100D900003FA02F40B682EEA040403FA02F2224377
:100DA000CCF82C20092B03EB4302E1D9DCF80CE052
:100DB0001E3A0724896894402EEA0404914023F0E7
:100DC00001022143102ACCF80C100DD142F2084147
:100DD000C4F20101A1F1080294450DD0816A41F0ED
:100DE00020018162012100E00021002280F82420FE
:100DF000084601B010BD00BF0A68120230D40A686C
:100E0000102B42F400020A602CD140F21801C2F209
:100E1000000109684DF68362C4F21B32A1FB021285
:100E2000910C01EB8101490000910099E1B1009919
:100E3000013900910099C9B10099013900910099D7
:100E4000B1B1009901390091009999B10099013926
:100E50000091009900294FF00001E8D1C5E700BFDB
:100E60000021C2E70021C0E70021BEE70021BCE766
:100E70000021BAE70021B8E7704700007047000082
:100E8000704700000068C06C70470000B0B50028D3
:100E900000F0A8800446806A20B121688868C007F5
:100EA0000BD114E00020E06284F82400204600F01A
:100EB0009BF821688868C00709D0886820F0010085
:100EC000886000F01DFD21688A68D20726D1A06ADB
:100ED000C0063AD4A06A41F2021290430230A062E6
:100EE000E069D4E9013240EA030C531EB3FA83F3FC
:100EF0005D091346B2F5807F18BF2B02207D257B4C
:100F000001284CEA450030D135B3A56A45F02005EB
:100F1000A562E56A45F00105E56226E0054602E0C6
:100F20008868C007D3D000F0EBFC401B2168032881
:100F3000F6D38868C007F3D0A06A40F01000A06222
:100F4000E06A40F00100E062A06AA06A40F0100090
:100F5000A0620120B0BD00BFD4F818C04EF6000555
:100F6000CFF6FF7505EB4C352B434D68B2F5807F0E
:100F700025F4694543EA05034B608B684FF2FD7524
:100F8000CFF6E17503EA050343EA00038B6001D065
:100F9000012A07D122690023CFF6F07303EB025236
:100FA00001E000BF0022CB6A23F470031A43CA6237
:100FB000896840F6FE62CFF61F721140814207D168
:100FC0000020E062A16A012262F30101A162B0BDCA
:100FD000A06A40F0100020F00200A062E06A40F039
:100FE0000100E0620120B0BD2DE9F04186B0044669
:100FF000006842F60001C4F2010188424FF000018E
:10100000CDE90411CDE902115CD042F20041C4F2F5
:101010000101884277D141F21800C4F20200016850
:1010200040F6000541F4007101600168C4F2010559
:1010300001F4007101910199016802AE41F00401CF
:10104000016001684FF0800801F0040101910199ED
:101050000168032741F0080101600068314600F093
:101060000800019001982846CDF80880039700F009
:1010700033FB05F580603146CDE9027700F02CFBAB
:1010800040F274150820C2F20005C4F202000021EB
:101090004FF48072C5E9000105F110004FF4806340
:1010A00020278CC02846C5E90218E96100F06EFAD5
:1010B000002818BFFFF714FE25626C6206B0BDE879
:1010C000F08100BF41F21800C4F20200016841F44F
:1010D00080610160016801F48061019101990168FA
:1010E00041F004010160006802A900F004000190D1
:1010F0000198702002900320039040F60000C4F293
:10110000010000F0E9FA06B0BDE8F08110B5044630
:1011100090F82400012804BF022010BD012084F8AB
:1011200024002046FFF7D6FC20B1002184F82410CB
:1011300010BD00BF42F2044C2068A16AC4F2010C49
:1011400040F2013291430CF57F7201F580719042BB
:10115000A16233D0A16A21F48011A16241684905DE
:1011600004D5A16A012363F30D31A162A16A0023B2
:10117000C9044FF0000144BFE16A21F00601E162B9
:101180006FF0020184F824300160816801F460216D
:10119000B1F5602F06D190420AD1DCF8001011F4AD
:1011A000702F05D0816841F480118160002010BD4E
:1011B000816841F4A0018160002010BDDCF80010BE
:1011C00011F4702FC6D0A16A41F48011A162DCF83D
:1011D00000104905C5D4C9E770B515460446006836
:1011E00042F60002C4F2010290420E4605D042F2DD
:1011F0000041C4F20101884209D142F20440C4F224
:101200000100006810F4702F1CBF012070BD94F81D
:101210002400012804BF022070BD012084F82400AE
:101220002046FFF757FC18B1002184F8241070BD48
:1012300042F204402168A26AC4F2010040F6017340
:101240009A4300F57F7302F580729942A26243D0FF
:10125000A06A20F48010A0624868400504D5A06A06
:10126000012262F30D30A062A26A0020D2044FF086
:10127000000244BFE26A22F00602E26284F824001F
:10128000206A40F66122C0F6000240F6CD2340F607
:10129000B52C00F1280EC0F60003C0F6000C8EE855
:1012A0000C106FF002020A608A682B4642F48072CA
:1012B0008A604C31324600F0ADF92068816801F453
:1012C00060228168B2F5602F0CBF41F4A00141F4A7
:1012D00080118160002070BD026812F4702FB7D0B9
:1012E000A26A42F48012A26200684005BCD5B6E74B
:1012F000014690F82100022816D10868D1E90FC3F1
:10130000026822F00E020260026822F0010202600E
:10131000012000FA03F2CCF8042081F8210000201B
:10132000002281F8202070470420886301200022D9
:1013300081F820207047000080B590F82110022924
:1013400024D10268116821F00E0111602F21136869
:10135000C4F202018A4240F20401C4F2020123F005
:101360000103136016DD3023C4F202039A421DD03C
:101370004423C4F202039A421CD05823C4F202034D
:101380009A421DD14FF4803322E000BF04218163D3
:10139000012080BD0823C4F202039A420ED01C2310
:1013A000C4F202039A420BD1102311E04FF4807370
:1013B0000EE000BF4FF480530AE000BF012307E0B6
:1013C00001F1680C4FF08073624508BF4FF4801341
:1013D0000B60012180F82110426B002180F8201061
:1013E0000AB190470021084680BD000010B5D0E941
:1013F0000FCE0168DCF800300A6823FA0EF35C07B0
:101400002AD512F0040427D00A68920603D40A6889
:1014100022F004020A602F22C4F20202914240F23A
:101420000402C4F202025BDD3023C4F202039942DB
:1014300072D04423C4F20203994273D05823C4F2F9
:101440000203994240F07A804FF480231360C16A0E
:10145000002940F098806FE09C0727D512F0020425
:1014600024D00A68920606D40A6822F00A020A60AA
:10147000012280F821202F22C4F20202914240F280
:101480000402C4F202023BDD3023C4F2020399429B
:1014900060D04423C4F2020399425FD05823C4F2BF
:1014A0000203994260D14FF4003365E01B0743D536
:1014B00012F0080208BF10BD0A6822F00E020A608E
:1014C000012101FA0EF2CCF80420816380F821108A
:1014D000016B0022002980F8202054D12CE000BFAD
:1014E0000823C4F20203994222D01C23C4F202034F
:1014F000994223D140231360C16A002943D11BE0E4
:101500000823C4F2020399422CD01C23C4F2020324
:10151000994229D120232FE04FF480631360C16AE0
:1015200089BB09E04FF480431360C16A59BB03E0F3
:1015300004231360C16A31BB10BD00BF02F168040F
:101540004FF08063A14208BF4FF480031360C16A6B
:10155000C9B9F1E74FF400730EE000BF4FF4005338
:101560000AE000BF022307E002F168044FF00073B5
:10157000A14208BF4FF400131360816A00220029C2
:1015800080F82020D8D0BDE8104008470146002848
:101590004FF0010008BF70472DE9F043D1F800C0BB
:1015A0004FF6F873CBF6FD734CF6CD426344CCF6A0
:1015B000CC42A3FB02236FF0030707EA9303002743
:1015C000C4F2020701F10C09C1E90F730223D1E94A
:1015D000012E99E87002D1F81C8081F82130DCF8E6
:1015E000003043F6F077BB431A4342EA0E0222432F
:1015F0002A43324342EA090242EA0802CCF80020B8
:1016000000228A6381F8210081F820200020BDE8B3
:10161000F0437047F0B590F820C0BCF1010F32D014
:101620004FF0010E80F820E090F821C0BCF1010FCE
:1016300026D14FF0020C80F821C04FF0000CC0F80A
:1016400038C0D0E900C4C56AC66BDCF80070102C45
:1016500027F00107CCF80070006C0EFA00F0706003
:101660000846CCF8043004BF10460A46CCF80800FF
:10167000CCF80C20DCF8000045B140F00E000DE085
:10168000002180F820100220F0BD00BF20F00400EF
:10169000CCF80000DCF8000040F00A00CCF80000B4
:1016A000DCF8000040F00100CCF800000020F0BDA4
:1016B000B0B5044600F024F9054640F21000C2F22D
:1016C00000000078611C18BF044400BF00F018F946
:1016D000401BA042FAD3B0BD2DE9F04F82B00E6896
:1016E000002E00F0038141F20042C4F20102042303
:1016F00040F2004E904208BF03234FF6FF7CC4F235
:10170000010E009300240123C1F2100C4FF0000AD7
:101710004FF0000949E000BF012704F00C030F223D
:101720009A402BEA020207FA03F34FEA9A051A439A
:1017300046F82520D1F804B040F20C455FEACB22F0
:10174000DEF8082054BF22EA080242EA0802C4F286
:101750000105CEF808202A685FEA8B2354BF22EAED
:10176000080242EA08022A605FEA8B33DEF80420AE
:1017700054BF22EA080242EA08025FEACB33CEF8FD
:101780000420DEF800204FF0010354BF22EA0802D3
:1017900042EA0802CEF800200E680AF1010A36FA81
:1017A0000AF204F1040400F0A18003FA0AF816EA30
:1017B000080FF1D04E68664512DC122E56D8DFE8CD
:1017C00006F0350B45495555555555555555555503
:1017D0005555554D510000BFD1F80C9046E000BF63
:1017E0004FF6FF72C1F2210296420FDC0022C1F2D5
:1017F000110296421AD00022C1F21202964215D06E
:101800000022C1F22102964210D02FE00022C1F244
:10181000220296420AD00022C1F23102964205D03D
:101820000022C1F23202964220D100BF8A684AB13A
:10183000012A14BFC0F81480C0F810804FF00809C6
:1018400014E000BF4FF0040910E000BFCA6802F1C5
:1018500008090BE04FF0000908E000BFCA6802F178
:10186000040903E0CA6802F10C0900BF22460646DB
:10187000BAF1080F24BF203A043637680F25954087
:1018800027EA050509FA02F22A433260CA79D2062C
:101890007FF582AF41F21803C4F202031A68AEF575
:1018A0007E7642F001021A601A6802F0010201928B
:1018B000019A2AF0030256F802B040F60002C4F280
:1018C0000102904210D040F60042C4F20102904260
:1018D0003FF422AF41F20002C4F20102009F9042A5
:1018E00008BF022719E700BF002716E702B0BDE8CE
:1018F000F08F00008068084018BF0120704700008A
:1019000040F20020C2F200000068704740F2100070
:1019100040F20021C2F20000C2F2000100780A6821
:10192000104408607047000080B542F20000C4F225
:101930000200016841F010010160032000F08EF800
:101940000F2000F005F800F027F8002080BD00000F
:1019500070B540F21006C2F2000640F2180132786B
:10196000C2F200014FF47A730968B3FBF2F2044645
:10197000B1FBF2F1084600F0E9FB0F2C4FF0010536
:1019800008D838B94FF0FF3021460022002500F07A
:1019900039F87460284670BD82B041F21800C4F274
:1019A00002000168022241F001010160016801F0BA
:1019B000010101910199416841F080514160406805
:1019C00000F08050009000980420C4F201000168EB
:1019D00062F31A61016002B070470000002848BF3E
:1019E0007047C1B200F01F00012202FA00F04EF26F
:1019F0000012CEF2000242EAD10121F00301086098
:101A00007047000010B54EF60C5CCEF2000CDCF80E
:101A10000030C3F3022E8EF00704042C28BF0424E8
:101A2000BEF103034FF0FF3E0EFA04F438BF00236B
:101A3000A14399400EFA03F39A43114300F00F02B9
:101A400000F160430901043A03F56443624400284D
:101A500048BF02F10C03197010BD00004EF60C5186
:101A6000CEF200010A684FF6FF031A4060F30A2223
:101A700042F0806040F0FD70086070472DE9F04151
:101A800082B00446007841F21C06C007C4F2020688
:101A90004AD0306810F0805808D1306840F080504B
:101AA0003060306800F080500190019847F20007E4
:101AB000C4F200073868C00512D4386840F480705A
:101AC0003860FFF71DFF05463868C00508D4FFF7EA
:101AD00017FF401B6428F7D9032002B0BDE8F0814E
:101AE000706810F4407012D0616801F4407188424F
:101AF0000DD0706840F24042C4F24222012320F42B
:101B0000407113600023C007136071602AD17068B0
:101B1000616820F440700843B8F1000F706003D191
:101B2000306820F0805030602068810707D556F873
:101B3000181CA26821F44041114346F8181CC00645
:101B400004D4002002B0BDE8F08100BF56F8180CA4
:101B5000E16820F48000084346F8180C002002B029
:101B6000BDE8F081FFF7CCFE054641F2883700BFA3
:101B700070688007CBD4FFF7C3FE401BB8424FF01C
:101B80000300F5D9EBE700002DE9F04381B0002810
:101B900000F0858042F20008C4F202080446D8F83A
:101BA00000000D4600F0070088420CD2D8F8000073
:101BB00020F007002843C8F80000D8F8000000F023
:101BC0000700A8426BD1206841F204098107C4F2E2
:101BD000020917D5410705D5D9F8001041F4E06195
:101BE000C9F80010010705D5D9F8001041F460517B
:101BF000C9F80010D9F80010A26821F0F0011143D3
:101C0000C9F80010C00741D1D8F8000000F0070063
:101C1000A8420CD9D8F8000020F007002843C8F8E3
:101C20000000D8F8000000F00700A84237D1206873
:101C3000410707D5D9F80010E26821F4E0611143AB
:101C4000C9F80010000708D5D9F80000216920F470
:101C5000605040EAC100C9F80000D9F8002002F045
:101C60000C00082841F20020C0F27A0050D144F65E
:101C70007273C2F38341C0F60003595CD2033BD4B4
:101C800040F60010C0F23D00484341E06068022881
:101C90000AD001282AD159F8041C890308D401204C
:101CA00001B0BDE8F08300BF59F8041C8901F6D5E6
:101CB000D9F8001021F003010843C9F80000FFF72C
:101CC0001FFE064641F28837D9F80000616800F02F
:101CD0000C00B0EB810F97D0FFF712FE801BB842CB
:101CE000F2D9032001B0BDE8F08300BF59F8041C0D
:101CF0008907D4D5DCE700BFD9F8002044F670731B
:101D0000C2F34042C0F600039A5C4843B0FBF2F0D5
:101D1000D9F8001044F65872C1F30311C0F600025E
:101D2000515C40F2180220FA01F140F21400C2F2B4
:101D300000000068C2F200021160FFF709FE0020F7
:101D400001B0BDE8F083000040F2180041F2040148
:101D5000C2F20000C4F202010068096844F6687229
:101D6000C1F30221C0F60002515CC8407047000078
:101D700040F2180041F20401C2F20000C4F2020174
:101D80000068096844F66872C1F3C221C0F6000217
:101D9000515CC840704700002DE9F04182B0002836
:101DA00068D00446007841F20006C007C4F202067B
:101DB00025D0706800F00C0004281BD0706800F07B
:101DC0000C00082802D17068C00313D46068002892
:101DD00000F06881B0F5A02F00F07C81B0F5803F65
:101DE00000F07C81306820F480303060306820F46E
:101DF000802076E13068800301D56068D0B3207818
:101E0000800718D5706810F00C0F07D0706800F0CC
:101E10000C0008286ED17068C0036BD4306880074E
:101E200002D52069012825D13068616920F0F800C9
:101E300040EAC1003060207800071FD420784007B6
:101E400032D4E56995B1706800F00C00082840F0C4
:101E50008F80012D0ED07068216A00F480328A4292
:101E600008D1616A00F47010884203D1002002B0EA
:101E7000BDE8F081012002B0BDE8F081A069002832
:101E800062D00020C4F242200121C0F88014FFF784
:101E900037FD0546706A800700F18C80FFF730FD42
:101EA000401B0228F6D92AE1F06910F0805808D1C9
:101EB000F06940F08050F061F06900F080500090CF
:101EC000009847F20007C4F200073868C00529D41B
:101ED000386840F480703860FFF712FD054600BF97
:101EE0003868C0051ED4FFF70BFD401B6428F7D9E6
:101EF00005E100BF2069002840F20000C4F2422042
:101F000000F0828001210160FFF7FAFC054600BF66
:101F1000306880073FF588AFFFF7F2FC401B0228CE
:101F2000F6D9ECE0E068002800F08080052800F099
:101F30009780012800F09880306A20F0010030621C
:101F4000306A20F0040092E00020C4F24220002118
:101F5000C0F88014FFF7D4FC054600BF706A800704
:101F60007FF56CAFFFF7CCFC401B0228F6D9C6E02A
:101F70000027C4F2422700203866FFF7C1FC022D7B
:101F800005460BD13068800140F1BE80FFF7B8FCF8
:101F9000401B02284FF00300F4D968E73068800145
:101FA0007FF564AFFFF7ACFC401B02284FF0030045
:101FB000F4D95CE740F21800C2F20000006844F671
:101FC000D351C1F26201A0FB0101480A019000BF98
:101FD00000BF0198411E002801913FF42FAF00BFC0
:101FE0000198411E002801913FF428AF00BF0198DD
:101FF000411E002801913FF421AF00BF0198411E0E
:1020000000280191E4D119E700210160FFF778FC75
:10201000054600BF306880077FF50DAFFFF770FC05
:10202000401B02284FF00300F4D920E7306A20F06B
:1020300001003062306A20F004003062FFF760FC7B
:10204000054641F2883700BF306A800720D5FFF788
:1020500057FC401BB8424FF00300F5D907E700BF1B
:10206000306A40F004003062306A40F001003062B3
:10207000FFF746FC054641F2883700BF306A80070B
:1020800006D4FFF73DFC401BB842F7D937E000BF4C
:10209000B8F1000F7FF4D5AEF06920F08050F06108
:1020A000CFE600BF306820F480303060306820F424
:1020B00080203060FFF724FC054600BF30688003B5
:1020C0007FF59DAEFFF71CFC401B64284FF003001A
:1020D000F4D9CCE6306840F480203060306840F4B9
:1020E00080303060FFF70CFC054600BF306880038D
:1020F0003FF585AEFFF704FC401B6428F6D90320AA
:1021000002B0BDE8F08100BF206AB0F5803F05D184
:102110007168A26821F40031114371607168626ACC
:1021200021F4741111430843706001203866FFF7F1
:10213000E7FB0446306880013FF598AEFFF7E0FB0F
:10214000001B02284FF00300F4D990E6411E002046
:10215000B0EB116F1CBF012070474EF21002CEF29F
:10216000000251604EF62351CEF20001F0230B70B5
:10217000072190601160704710B590F83C20012A4B
:102180004FF0020233D080F83D200268D2F804E01C
:10219000D2F808C00C682EF07003234340F2FF749D
:1021A000C4F20004A24253600ADCB2F1804F13D0A3
:1021B00040F20043C4F200039A420DD011E000BF88
:1021C00042F60043C4F201039A4205D040F60003F0
:1021D000C4F200039A4204D149682CF080031943E9
:1021E00091600121002280F83D1080F83C201046CB
:1021F00010BD0000002804BF0120704710B5044640
:1022000090F83D0028B9002084F83C00204600F0FA
:1022100067F8022084F83D00206840F2FF730268EE
:10222000C4F2000342F6004C9842C4F2010C15DCE3
:10223000B0F1804F1AD040F20041C4F20001884250
:1022400014D0984218DCB0F1804F1DD040F200410C
:10225000C4F20001884217D01AE000BF604505D0E3
:1022600040F60001C4F200018842EAD1A16822F0E0
:1022700070020A439842E6DD604505D040F6000151
:10228000C4F20001884203D1216922F440720A435A
:10229000A36922F08001D4F804E0E26819436045A4
:1022A0000160C262C0F828E002D16169CCF8301048
:1022B00001214161002084F8461084F83E1084F822
:1022C0003F1084F8401084F8411084F8421084F8DC
:1022D000431084F8441084F8451084F83D1010BD74
:1022E00081B00068B0F1804F02D001B0704700BFEC
:1022F00041F21C00C4F20200016841F001010160DA
:10230000006800F001000090009801B070470000E4
:1023100080B590F83C20012A4FF0020200F0C28004
:1023200080F83D20D0F800C04FF67772DCF8083016
:1023300023EA0202CCF808200B684F2B28DC1F2B65
:1023400044DD202B45D0302B43D0402B40F0AC80D7
:10235000D1F804E0C968DCF82030DCF8202022F055
:102360000102CCF82020DCF8182022F0F00242EA2A
:10237000011123F00A0242EA0E02CCF81810CCF840
:102380002020DCF8081041F0470121F0300180E006
:102390006F2B27DDB3F5005F48D0B3F5805F7AD0AF
:1023A000702B40F08180D1E901E3C968DCF8082096
:1023B00043EA0E0322F47F4243EA01211143CCF8A1
:1023C0000810DCF8081041F0770162E00BB1102B27
:1023D0006AD1DCF8081021F07001194341F00701BF
:1023E00057E000BF502B35D0602B5DD1D1F804E011
:1023F000C968DCF82030DCF8202022F01002CCF88C
:102400002020DCF8182022F4704242EA013123F047
:10241000A00242EA0E12CCF81810CCF82020DCF80A
:10242000081041F0670121F0100132E0D1E901E329
:10243000C968DCF8082043EA0E0322F47F4243EA2D
:1024400001211143CCF80810DCF8081041F4804158
:102450001FE000BFD1F804E0C968DCF82030DCF8E8
:10246000202022F00102CCF82020DCF8182022F0F5
:10247000F00242EA011123F00A0242EA0E02CCF80D
:102480001810CCF82020DCF8081041F0570121F09A
:102490002001CCF808100022012180F83D10002115
:1024A00080F83C10104680BD0122F5E780B586B06B
:1024B00000680021B0F1804F049101D006B080BDCA
:1024C00041F21800C4F20200016841F00401016009
:1024D000006802A900F00400019001980E2002900B
:1024E00002200390059040F60000C4F20100FFF7BF
:1024F000F3F806B080BD00002DE9F04390F83C30C1
:10250000012B04BF0220BDE8F0834FEAB202032A88
:102510003CD8DFE802F0034381BD00BF036842F608
:1025200000461D6A1A6AC4F2010622F001021A620C
:102530001A465C6852F818CFB3428E68D1F800E0B2
:1025400025F0020545EA06050CD1CE68D1E90578EB
:1025500024F4407425F00C0526F004063C43354372
:1025600044EA08042CF0730747EA0E075C609F6199
:102570004F6809695F631D629F6947F008079F61A3
:102580009F6927F004079F61B2E000BF012100228C
:1025900080F83C200846BDE8F08300BF036842F69F
:1025A00000461D6A1A6AC4F2010622F010021A627D
:1025B0001A46D3F804C052F8184FB3428E68D1F8C7
:1025C00000E025F0200545EA061510D1CE68D1E9D6
:1025D000058725F0C0096FF0400505EA06152CF4C3
:1025E000406647EA080745EA090546EA870C24F4ED
:1025F000E64444EA0E27C3F804C09F614F680969A6
:102600009F631D629F6947F400679F619F6927F47C
:1026100080679F616BE000BF036842F600461D6A59
:102620001A6AC4F2010622F480721A621A46D3F8BA
:1026300004C052F81CEFB3428E680C6825F4007594
:1026400045EA062511D1CE68D1E9058725F4406910
:10265000360240F2FF4526EA05052CF4405647EACB
:10266000080745EA090546EA071C2EF073072743C9
:10267000C3F804C0DF614F680969DF631D62DF6969
:1026800047F00807DF61DF6927F00407DF612FE00B
:10269000036842F60047D3F820C01A6AC4F2010763
:1026A00022F480521A621A465C6852F81C5FD1F814
:1026B00000E08E68BB4204D14F6924F4804444EAB0
:1026C00087142CF4005747EA063725F4E64646EA15
:1026D0000E265C60DE614E6809691E641F62DF6958
:1026E00047F40067DF61DF6927F48067DF61090273
:1026F0001368194311600021002280F83C2008462D
:10270000BDE8F083002804BF0120704710B50446DF
:1027100090F83D0028B9002084F83C00204600F0E5
:1027200067F8022084F83D00206840F2FF730268D9
:10273000C4F2000342F6004C9842C4F2010C15DCCE
:10274000B0F1804F1AD040F20041C4F2000188423B
:1027500014D0984218DCB0F1804F1DD040F20041F7
:10276000C4F20001884217D01AE000BF604505D0CE
:1027700040F60001C4F200018842EAD1A16822F0CB
:1027800070020A439842E6DD604505D040F600013C
:10279000C4F20001884203D1216922F440720A4345
:1027A000A36922F08001D4F804E0E268194360458F
:1027B0000160C262C0F828E002D16169CCF8301033
:1027C00001214161002084F8461084F83E1084F80D
:1027D0003F1084F8401084F8411084F8421084F8C7
:1027E000431084F8441084F8451084F83D1010BD5F
:1027F0007047000041B1082910D0042914BF00F12E
:10280000410200F13F020BE090F83E20012A1CBF7C
:1028100001207047022280F83E2013E000F14002C0
:102820001278012A1CBF012070470222082907D014
:10283000042914BF80F8412080F83F2002E000BF47
:1028400080F84020006801F01F010122036A8A40DD
:1028500023EA02010162036A42F64441C4F2010123
:102860001A43A1F14403984202620FD040F2FF7173
:10287000C4F20001884213DCB0F1804F1CD040F25A
:102880000041C4F20001884216D01CE00A6842F4FC
:1028900000420A6040F2FF71C4F200018842EBDDA1
:1028A00042F60041C4F20101884205D040F6000121
:1028B000C4F20001884206D1816801F007010629AF
:1028C00004BF00207047016841F001010160002051
:1028D000704700007047000070470000B0B582B03C
:1028E000044600680168C368426901F02F05202D85
:1028F00003F0200506D12DB1204602B0BDE8B0405E
:1029000000F0D2BC5FEA017C1EBF02F0010E03F4AE
:10291000907212EB0E0253D1226B012A05D111F0F5
:10292000100218BF13F0100236D10A0622D513F098
:1029300080021FD094F8411021293FD1A168B1F540
:10294000805F03D12169002900F07082216A4A1C4E
:10295000226209784160E18C01390A04E1842DD1B9
:10296000C16821F08001C160C16841F04001C160CF
:1029700002B0B0BD490621D513F040011ED0C16898
:1029800021F04001C1602021204684F8411002B0AE
:10299000BDE8B04000F072BC0021019101680191D6
:1029A0004168019101994069400613D4A08DE18DE1
:1029B000E28D002A18BF884240F0BA8102B0B0BD53
:1029C000CA0718BF13F4807240F0B6804A0700F1BE
:1029D000B980BEE0E06B016849688AB2002AEDD098
:1029E000A38D9A42EAD2E1858069202800F09C807C
:1029F000206850E8030F216820F4807041E803024A
:102A0000DAB1206850E8030F216820F4807041E8B3
:102A1000030292B1206850E8030F216820F480700F
:102A200041E803024AB1206850E8030F216820F40E
:102A3000807041E80302002ADAD1206850E8050FCF
:102A4000216820F0010041E80502DAB1206850E871
:102A5000050F216820F0010041E8050292B12068CD
:102A600050E8050F216820F0010041E805024AB155
:102A7000206850E8050F216820F0010041E80502B8
:102A8000002ADAD1206850E8050F216820F04000C4
:102A900041E80502DAB1206850E8050F216820F00E
:102AA000400041E8050292B1206850E8050F216816
:102AB00020F0400041E805024AB1206850E8050FC7
:102AC000216820F0400041E80502002ADAD12020E8
:102AD00084F8420000202063206850E8030F21683A
:102AE00020F0100041E80302DAB1206850E8030F3B
:102AF000216820F0100041E8030292B1206850E8FC
:102B0000030F216820F0100041E803024AB1206859
:102B100050E8030F216820F0100041E80302002A6A
:102B2000DAD1E06BFEF7E4FB02206063A08DE18D5B
:102B3000401A81B2204674E1626C42F00102626484
:102B40004A0706D5BEF1000F03D0626C42F00202C4
:102B500062648A0706D5BEF1000F03D0626C42F0B2
:102B600004026264BCF1000F09D545EA0E02B2FA14
:102B700082F2520903D1626C42F008026264626C14
:102B8000002A3FF41BAF11F0200118BF002D03D025
:102B9000204600F089FB20684069616C00F040002D
:102BA00001F00801401800F0B58000BF206850E82F
:102BB000030F216820F4907041E80302BAB3206843
:102BC00050E8030F216820F4907041E8030272B3CB
:102BD000206850E8030F216820F4907041E8030258
:102BE0002AB3206850E8030F216820F4907041E870
:102BF0000302002ADAD11AE0206850E8050F2168A4
:102C000020F0010041E80502DAB1206850E8050F24
:102C1000216820F0010041E8050292B1206850E8E7
:102C2000050F216820F0010041E805024AB1206843
:102C300050E8050F216820F0010041E80502002A54
:102C4000DAD1206B012824D1206850E8030F2168D5
:102C500020F0100041E80302DAB1206850E8030FC9
:102C6000216820F0100041E8030292B1206850E88A
:102C7000030F216820F0100041E803024AB12068E8
:102C800050E8030F216820F0100041E80302002AF9
:102C9000DAD1202084F842000020206320684069B7
:102CA00040063FD5206850E8050F216820F040001D
:102CB00041E80502DAB1206850E8050F216820F0EC
:102CC000400041E8050292B1206850E8050F2168F4
:102CD00020F0400041E805024AB1206850E8050FA5
:102CE000216820F0400041E80502002ADAD1E06BBB
:102CF000C0B143F29D21C0F600014163FEF71CFB09
:102D000000283FF45BAEE06B416B02B0BDE8B04021
:102D1000084700BF2046FFF7DFFD0020606402B0D7
:102D2000B0BD00BF204602B0BDE8B040FFF7D4BD43
:102D3000401A216851E8031F226821F4907142E88B
:102D40000313DBB1216851E8031F226821F490715D
:102D500042E8031393B1216851E8031F226821F46C
:102D6000907142E803134BB1216851E8031F2268B8
:102D700021F4907142E80313002BDAD1216851E865
:102D8000051F226821F0010142E80513DBB121682B
:102D900051E8051F226821F0010142E8051393B1B3
:102DA000216851E8051F226821F0010142E805135E
:102DB0004BB1216851E8051F226821F0010142E86A
:102DC0000513002BDAD1202184F842100021216361
:102DD000216851E8031F226821F0100142E8031323
:102DE000DBB1216851E8031F226821F0100142E89D
:102DF000031393B1216851E8031F226821F01001E9
:102E000042E803134BB1216851E8031F226821F007
:102E1000100142E80313002BDAD1022281B22046CE
:102E2000626302B0BDE8B040FFF754BD216A31F8DB
:102E3000022B6FF35F22426021628CE5002804BF01
:102E40000120704710B5044690F8410028B90020D1
:102E500084F84000204600F063F8242084F8410004
:102E60002068D4E90212C36823F40053C3600369E5
:102E700023F440531A430261D4E904231143C26886
:102E8000194341F20C639A431143C1604169A2693D
:102E900021F44071114343F60002C4F20102904252
:102EA000416103D0FEF750FF02E000BFFEF760FF74
:102EB0006268192148439100B0FBF1F048F21F51BC
:102EC000C5F2EB11A0FB01235A094FF69C73C0F623
:102ED000FF7302FB0300322303EB0010A0FB010190
:102EE000F02303EA5113206803EB0212C1F34311EC
:102EF00011448160016921F490410161416921F02F
:102F00002A014161C16841F40051C16000202021C3
:102F1000606484F8411084F84210606310BD0000C2
:102F200070B586B040F60044C4F201040068A4F510
:102F3000444100268842049602D006B070BD00BF0E
:102F400041F21800C4F20200416802AD41F4802150
:102F50004160416801F4802101910199016841F0CB
:102F6000080101600068294600F0080001900198FE
:102F70004FF48060029002200390032005902046C9
:102F8000FEF7AAFB4FF40060CDE902062046294671
:102F90000496FEF7A1FB272000210022FEF732FD58
:102FA0002720FEF71BFD06B070BD000090F84230F0
:102FB000202B1CBF0220704700294FF0010318BFCF
:102FC000002A01D118467047002303638162222141
:102FD0008285C285436480F842100169006819B196
:102FE000C16841F48071C1604169002341F0010171
:102FF0004161C16841F02001C1601846704700007E
:10300000704700002DE9F04381B0044690F841007C
:10301000202840F0B180884600294FF0010000F0E0
:10302000D6801646002A00F0D2800020606421205D
:103030001D4684F84100FEF763FCA684E684A1687F
:103040000646B1F5805F03D12069002800F0988022
:1030500047464FF00008E18C2068002900F0968078
:1030600005F101090BE000BF47B317F8011B4160F0
:10307000E18C0139E184E18C002900F0878001684E
:103080000906F1D4B9F1000F0AD0EDB1FEF738FC12
:10309000801BA84218D8206801680906F6D5E3E726
:1030A00001680906E0D4016809065CBF01685FEAAF
:1030B0000161D9D401680906F2D5D5E738F8021BB9
:1030C00000276FF35F21D2E7206850E8030F2168E3
:1030D00020F4D07041E80302BAB3206850E8030F2F
:1030E000216820F4D07041E8030272B3206850E8F0
:1030F000030F216820F4D07041E803022AB320684E
:1031000050E8030F216820F4D07041E80302002A40
:10311000DAD11AE0206850E8050F216820F001009C
:1031200041E80502DAB1206850E8050F216820F077
:10313000010041E8050292B1206850E8050F2168BE
:1031400020F0010041E805024AB1206850E8050F6F
:10315000216820F0010041E80502002ADAD1202090
:1031600084F8410084F84200002084F840000320E5
:1031700001B0BDE8F08300BF022001B0BDE8F083DC
:103180000027E18C206800297FF46AAF01684906B6
:1031900019D4FDB1691C0DD10168490613D4016829
:1031A00049065CBF01685FEA41610CD401684906C9
:1031B000F2D508E0FEF7A4FB801BA8420AD82068DD
:1031C00000684006F6D5202084F84100002001B0B8
:1031D000BDE8F083206850E8030F216820F4D07028
:1031E00041E80302002A3ED0206850E8030F21681E
:1031F00020F4D07041E80302AAB3206850E8030F1E
:10320000216820F4D07041E8030262B3206850E8DE
:10321000030F216820F4D07041E80302002AD9D1BD
:1032200021E000BF206850E8050F216820F0010070
:1032300041E80502002A3FF492AF206850E8050FEC
:10324000216820F0010041E80502002A3FF487AF21
:10325000206850E8050F216820F0010041E80502D0
:10326000002A3FF47CAF206850E8050F216820F069
:10327000010041E80502002AD4D170E77047000040
:10328000FEE70000FEE70000FEE7000070470000D8
:1032900070470000FEF73ABB70470000406A00210B
:1032A000C185C184FFF718BB81B090F84210222974
:1032B00021D183680246B3F5805F09D152F8281FF7
:1032C00052F8183C002B63D003685B680AE000BF2B
:1032D00052F8281F13B90369002BF5D003685B6807
:1032E00003F07F030B70116801311160C18D01394A
:1032F0000A04C18502D001B0704700BF0168CA68E6
:1033000022F02002CA60CA6822F48072CA604A6948
:1033100022F001024A61202180F84210002141631D
:10332000026B012A3CD10163016851E8031F026866
:1033300021F0100142E80313DBB1016851E8031FDB
:10334000026821F0100142E8031393B1016851E8CB
:10335000031F026821F0100142E803134BB101681A
:1033600051E8031F026821F0100142E80313002B0B
:10337000DAD101680A68D20606D5002200920A68EE
:103380000092496800910099818D01B0FFF7A2BABF
:10339000026852686FF35F2221F8022B8162A5E771
:1033A00001B0FFF72DBE000040F2B810C2F20000DD
:1033B000FFF794BAFEE700000021B0F57A7F88BFDE
:1033C0000121084670470000B0B540F60045C4F240
:1033D000010528460821FEF78DFA044628461021EB
:1033E000FEF788FA002C02BF01280120B0BD00289A
:1033F00002BF012C0220B0BD20434FF0000008BFE7
:103400000320B0BD9AB0FEF78FFA00240120CDE969
:103410001544CDE913441490102015904FF440103A
:103420000225199010A8CDE911440994CDE907446B
:103430001095CDE91754FEF7AFFC28B1EFF31080DB
:1034400072B600BFFEE700BF0F20CDE90B054FF4B9
:103450008060CDE90E040BA802210D94FEF794FBC9
:1034600020B1EFF3108072B6FEE700BF0220069095
:103470004FF48040089006A8FEF700FB20B1EFF360
:10348000108072B6FEE700BF002641F218051396C1
:10349000C4F20205286844F6000A40F020002860C3
:1034A0002868C4F2000A00F020000B900B982868EE
:1034B00010AC40F0040028602868012700F00400E8
:1034C0000B900B982868214640F008002860286877
:1034D00000F008000B900B980AF54040CDE91076FB
:1034E0001296FEF7F9F81820CDE910060AF54440C7
:1034F00021461296FEF7F0F855F8040C002140F032
:10350000010045F8040C55F8040C002200F00100FD
:10351000109010980B20FEF775FA0B20FEF75EFA5C
:1035200040F2FC000AF55C41C2F200004FF48072E8
:103530004FF46023C0E90016032107730675C361C9
:1035400082600161FDF7A2FC20B1EFF3108072B63A
:10355000FEE700BF0720CDE91007129040F2FC0003
:10356000C2F2000010A9FDF7C1FB28B1EFF31080F3
:1035700072B600BFFEE700BF082010900220119035
:1035800040F2FC00C2F2000010A9FDF7AFFB28B129
:10359000EFF3108072B600BFFEE700BF092040F2D3
:1035A000FC0810900320C2F20008119010A94046B8
:1035B000FDF79CFB20B1EFF3108072B6FEE700BF71
:1035C0004FF080424046002140F8302F232240F245
:1035D000E7330E91CDE90C11CDE90611CDE91511B6
:1035E000CDE91311C0E90121C0E903318161FEF782
:1035F00001FE28B1EFF3108072B600BFFEE700BFF6
:103600004FF4805008F130040B900BA92046FEF7D0
:103610007FFE28B1EFF3108072B600BFFEE700BF57
:103620002046FFF76FF828B1EFF3108072B600BFA5
:10363000FEE700BF06A920460294FEF79DFD18B1E3
:10364000EFF3108072B6FEE7602010900020CDE905
:1036500011001490029810A90422FEF74DFF18B132
:10366000EFF3108072B6FEE7029810A90822FEF769
:1036700043FF18B1EFF3108072B6FEE7029810A96D
:103680000C22FEF739FF18B1EFF3108072B6FEE797
:103690000298FEF70BFF40F28009C2F200090AF51A
:1036A0006041484640F84C1F002101244FF460223D
:1036B00004730175C261C0E901110461FDF7E6FB05
:1036C00020B1EFF3108072B6FEE700BF0520CDE910
:1036D00010040320129009F14C0010A90390FDF78B
:1036E00005FB18B1EFF3108072B6FEE740F2B81098
:1036F000C2F200004FF4165100230C22C0E900A1D1
:10370000C0E90233C0E90432C0E90633FFF796FB93
:1037100020B1EFF3108072B6FEE700BF029C0421D7
:103720002046FFF767F820460821FFF763F8204698
:103730000C21FFF75FF840F2B81009F10201C2F264
:1037400000000322FFF732FC09F10C0009F1100A16
:1037500009F1280B019006E0204600F04DF94FF4E6
:103760007A70FDF7A5FF039D0020C9E90700C9F89D
:1037700024002846FDF7CAFC2846FDF783FBA9F87C
:10378000000080B2FFF718FE0028E5D0FFF71CFE0E
:10379000012807DBFFF718FEC9F80800FEF7B0F8AC
:1037A000C9F80C00D9F80830019940F6B830224623
:1037B00000F0F4F84FF47A77404651460322FDF7C3
:1037C0000BFD50465946FDF7E3F909F11C0532CDD2
:1037D000D9F8280001F08EF90646D9F82C002146C8
:1037E000C9F81C6001F086F90446D9F83000294672
:1037F000C9F8204001F07EF9013FC9F82400DBD16F
:103800000027C4F27A4705463046394601F0D4F91C
:1038100001F044F94CF6CD424CF6CC43CCF6CC4208
:10382000C4F2000300F04EFF00F004FD0646C9F8A4
:1038300034002046394601F0BFF901F02FF947F274
:10384000A4024AF2D733C0F63D22C4F2000300F0CE
:1038500039FF00F0EFFC0490C9F8380028463946DB
:1038600001F0AAF901F01AF943F233334FF0333281
:10387000C3F6FF7300F026FF00F0DCFC0590C9F8EA
:103880003C00304601F00AF900230022CCF2040388
:1038900000F002FD054640F20800C2F20000406858
:1038A0000C4601F0FBF806460F46284621463246F4
:1038B0003B4600F099FD00F0BDFC20F00045049867
:1038C000C9F8405001F0EAF80024CCF204040022C8
:1038D000234600F0E1FC32463B4600F085FD00F057
:1038E000A9FC20F00040C9F84400059801F0D6F882
:1038F0000022234600F0D0FC32463B4600F074FD27
:1039000000F098FC20F00040C9F84800284601F07B
:10391000C5F844F6827609F11605C0F6000602469F
:103920000B4628463146FCF75BFC40F2B814C2F265
:1039300000042046294606224FF47A73FFF762FB03
:10394000D9F8440001F0AAF802460B462846314651
:10395000FCF746FC2046294606224FF47A73FFF70F
:1039600051FBD9F8480001F099F802460B46284669
:103970003146FCF735FC2046294606224FF47A737F
:10398000FFF740FB40F208012046C2F2000101228D
:103990004FF47A73FFF736FB029CE0E6F0B581B096
:1039A0001D4614460E460746FDF7AAFF3168401A29
:1039B000B8420BD2032D13D0022D17D0012D0CD1FC
:1039C000204601B0BDE8F04000F01CB8204600F0F1
:1039D00031F8FDF795FF3844306001B0F0BD00BF0D
:1039E000204601B0BDE8F04000F014B8204601B018
:1039F000BDE8F04000F016B8006800210164816362
:103A0000C163704700684FF47A718163C163C82154
:103A10000164704700684FF47A7101648163C16387
:103A2000704700000068C82181634FF47A71C16358
:103A3000016470470068C8218163C16301647047F5
:103A40005FEA400C08BF91F0000F4FEA8C234FEA69
:103A5000C12243EA51514FEA1C5018BF00F5F04013
:103A60004FEA300018BF41F000415FEA6C5C00F0A3
:103A70002980BCF1FF3F08BF40F080407047130C25
:103A800006BF12044FF0100C4FF0000C130E04BFD1
:103A900012020CF1080C130F04BF12010CF1040CFC
:103AA000930F04BF92000CF1020CD30F04BF52001D
:103AB0000CF1010C11464FF00002A0F11F00A0EB29
:103AC0000C00704711F0004F08BF704731F0004103
:103AD0003FF4D5AF0B0C06BF09044FF0100C4FF0AC
:103AE000000C0B0E04BF09020CF1080C0B0F04BFF5
:103AF00009010CF1040C8B0F04BF89000CF1020CBE
:103B0000CB0F04BF49000CF1010CCCF1200322FAC9
:103B100003F341EA030102FA0CF2A0EB0C0000F1FE
:103B20000100704723F07F4720F07F4C80EA0300BC
:103B300000F00040ACEB070303F57C5303F1FF03F7
:103B40002DE9804909B44FEA144324EA03484FEAB7
:103B5000154B25EA0B4E0FF2042606EB13273E7891
:103B600003FB0667C7F5000707FB06F64FEAD646D4
:103B700006F102064FEA543707FB066CCCF1005CF5
:103B80004FEA1C472CEA074C0CFB06F507FB06F432
:103B900004EB15464FEA961649085FEA320234BF35
:103BA00000204FF000404FEAD13706FB07FC4FEAF8
:103BB0001C4C0CFB0BF7D21B03FB0CF761EB070152
:103BC0000CFB0EF7B0EB074072EB17420CFB08F74B
:103BD00034BFA2EB0742B2EB074261EB17414FEA59
:103BE0000C444FEA910706FB07FC4FEA1C4C0CFB08
:103BF0000BF7B0EBC74072EB573203FB0CF734BF47
:103C0000A2EBC742B2EBC74261EB57310CFB0EF798
:103C1000B0EBC70072EB57720CFB08F734BFA2EB96
:103C2000C702B2EBC70261EB57714FEA816141EA0B
:103C300092114FEA826242EA90124FEA806004EBEE
:103C4000CC04039F4FEAD13706FB07FC4FEA1C4C1C
:103C50000CFB0BF7D21B03FB0CF761EB07010CFB12
:103C60000EF7B0EB074072EB17420CFB08F734BFBE
:103C7000A2EB0742B2EB074261EB17414FEA8C55CA
:103C800004EB9C244FEA910706FB07FC4FEA1C4C0F
:103C90000CFB0BF7B0EBC74072EB573203FB0CF792
:103CA00034BFA2EBC742B2EBC74261EB57310CFB0A
:103CB0000EF7B0EBC70072EB57720CFB08F734BF7E
:103CC000A2EBC702B2EBC70261EB57714FEA816109
:103CD00041EA92114FEA826242EA90124FEA806012
:103CE00015EB4C2544F100044FEAD13706FB07FCE5
:103CF0004FEA1C4C0CFB0BF7D21B03FB0CF761EBE0
:103D000007010CFB0EF7B0EB074072EB17420CFB00
:103D100008F734BFA2EB0742B2EB074261EB174151
:103D20004FEA813141EA92414FEA823242EA9042BF
:103D30004FEA80304FEA0C7615EB1C1544F1000475
:103D400048EA03434EEA0B484FF0000EB2EB080C72
:103D500071EB030724BF624639464EEB0E0E4FF05F
:103D6000000B0018524149414BEB0B0BB2EB080C16
:103D700071EB03077BF1000B24BF624639464EEB23
:103D80000E0E4FF0000B0018524149414BEB0B0B4C
:103D9000B2EB080C71EB03077BF1000B24BF62460A
:103DA00039464EEB0E0E51EA020718BF46F00106E7
:103DB00016EB0E7655F1000254F1000103D5BDE873
:103DC0008901BDE80088BDE88901BDE80048B61951
:103DD000524141EB0101A3F10103704780807F7ED6
:103DE0007D7C7B7A79787776767574737271717071
:103DF0006F6E6E6D6C6C6B6A6A6968686766666523
:103E00006464636362616160605F5F5E5E5D5D5CB0
:103E10005C5B5B5A5A595958585757565655555521
:103E20005454535352525251515050504F4F4F4E81
:103E30004E4D4D4D4C4C4C4B4B4B4A4A4A494949CF
:103E40004848484747474746464645454544444411
:103E50004443434343424242424141419C46002B3A
:103E600030D477002BD04FEA37071CB503B44FF09E
:103E700010004FF01001BAF1000F06D0BCF1000F96
:103E8000DCBF40F0080040F008014FF000000FBC1C
:103E9000BDE810400BF1010BBBF1010F08BF5FEA59
:103EA000170722BF12F1010211F101014FF0004189
:103EB00043F1000300F0004043EA00007047F9D3EB
:103EC0005708D0E746EA06464FEA164613F1400F78
:103ED0001FDD13F1200FDFBF16430A4600212033F8
:103EE0005B42BED0C3F1200746EA06464FEA1646BB
:103EF00002FA07F746EA070622FA03F2C3F120079F
:103F000001FA07F742EA070221FA03F14FF0000332
:103F1000A7E746EA020646EA06464FEA164646EA9A
:103F20000106BCBF46EA0646360C4FF000034FF0D0
:103F300000024FF0000194E72DE9804C70B49A46DE
:103F4000934691E8380007C831EA400C48BF34EA8C
:103F5000430C03D5FFF7E6FDFFF780FFF0BCBDE89B
:103F6000008C2DE9804C70B49A46934691E8380055
:103F700007C810F0804F08BF13F0804F03D100F046
:103F800005F8FFF76BFFF0BCBDE8008C20F07F4721
:103F900023F07F4C80EA030000F0004007EB0C03A5
:103FA000A3F57C53A3F1FE0392F0000F00F0B38061
:103FB00095F0000F00F077802DE901494FEA11409C
:103FC00021EA00484FEA144624EA064700FB06FCB3
:103FD00008FB06F607FB08F818EB06484CEB164CF6
:103FE00000FB07F718EB07484CEB17404FEA124B62
:103FF00022EA0B4E4FEA154625EA06470BFB06FC64
:104000000EFB06F607FB0EFE1EEB064E4CEB164CA7
:104010000BFB07F71EEB074E4CEB174B18EB0B088F
:1040200040F1000018EB0E0B58EB000840F10000C7
:104030008F1A4FF000014FF000063CBFC943661BCA
:1040400014BFB5EB040C00213CBFC943F61B4FEA7B
:10405000174427EA04454FEA1C472CEA074C04FBA7
:10406000076205FB07F70CFB05F616EB074642EB6C
:10407000174204FB0CFC16EB0C4642EB1C421BEBFC
:10408000060658EB020241414EEA8E0E46EA9E06B3
:1040900001D5BDE80189B619524141EB0101A3F1F7
:1040A0000103BDE801894FEA144524EA05464FEAB9
:1040B000114721EA074C05FB07F406FB07F70CFB49
:1040C00006F111EB074144EB174405FB0CFC11EB27
:1040D0000C4144EB1C444FEA124722EA074C05FB13
:1040E00007F206FB07F70CFB06F616EB074642EB5A
:1040F000174205FB0CFC16EB0C4642EB1C456A18FC
:1041000054F1000148BF7047B619524141EB01011B
:10411000A3F10103704795F0000F37D04FEA114229
:1041200021EA02464FEA144724EA074C02FB07F152
:1041300006FB07F70CFB06F414EB074441EB1741B1
:1041400002FB0CFC14EB0C4441EB1C414FEA1547FD
:1041500025EA074C02FB07F506FB07F70CFB06F602
:1041600016EB074645EB174502FB0CFC16EB0C461D
:1041700045EB1C42121951F1000148BF7047B619B6
:10418000524141EB0101A3F1010370474FEA14458D
:1041900024EA05464FEA114721EA074C05FB07F1DF
:1041A00006FB07F70CFB06F212EB074241EB174147
:1041B00005FB0CFC12EB0C4251EB1C414FF00006CE
:1041C00048BF7047921841EB0101A3F1010370470A
:1041D000490050EAC12018BF04204A0D18BF40F022
:1041E000010040F2FF72B2EB515F08BF40F00200E5
:1041F000012808BF0520704730380A2801D2012065
:10420000704700207047000010B500290AD00878D8
:10421000002807D005487844FCF7DAFB002801D0D5
:10422000002010BD0248784410BD0000920D00002F
:104230008A0D000021F0004201F00043A2F160521B
:10424000B2F5801F28BFD2F17F6C0BD95FEA001C4A
:1042500043EAC20242EB507018BF704728BF20F0FB
:1042600001007047B2F5801FBCBF184670474FEA87
:10427000410C1CF5001F02D2084600F0A5BD70B528
:1042800000F0CAFA00000089FFF7F6BF4FF00040C7
:10429000A0F580007047000010B591EA030F48BFF9
:1042A00083F0004300F11483841A71EB030C05D2F0
:1042B000121943EB0C03001B61EB0C014FEA115484
:1042C000A4EB135CDFF81CE11EEA430F18BF9EEA63
:1042D000445F00F0748021EA045123EA0E0343F4A2
:1042E0008013DCF1200E32D322FA0CFE10EB0E000C
:1042F00023FA0CFE41EB0E01CCF1200E03FA0EFE68
:1043000010EB0E00CCF1200E51F10001B1F5801F31
:1043100032D201EB045112FA0EF2BDE8104058BF40
:104320007047401C38BF5FEA420218BF7047002840
:1043300014BF20F0010041F100014FEA410313F5E1
:10434000001F38BF7047A1F1C04100F0B3BA012A85
:1043500043EB0302ACF1200CDCF11F0E32BF4FF037
:10436000000E23FA0CF310EB030041EB0451B4EB05
:10437000115FD0D0A1EB045101F58011490801EB88
:1043800004515FEA30000ED350F1000038BF12FA3A
:104390000EFE08D1BDE81040C9E7401C38BF5FEAF7
:1043A0004202CAD1C3E7BDE810404FEA410313F50A
:1043B000001F38BF7047A1F1C04100F07BBA9EEAF0
:1043C000445F08D011EA5E0FBDE8104004BF01F061
:1043D000004100207047BDE8104070B500F01CFAA5
:1043E00064FBBE3E0000E0FF2DE9C04130B4DFF8C1
:1043F000A4C23CEA111418BF3CEA131400F0ED808B
:104400001CEA111481EA030544EAD57418BF1CEABA
:10441000131500F0C880A4EB050404F17F7404F5C3
:1044200000344FF0004545EAC12145EAC32341EA83
:10443000505143EA52534FEAC0204FEAC2229942F8
:1044400008BF904200F09D804FEA13650FF24416BA
:10445000765D4FEA134506FB05F7C7F1807706FB4B
:1044600007F74FEAD737A7FB03687642A7FB06CECC
:10447000C8F5803838BFA8F1010807FB08E6A6FB9D
:10448000028C4FF0000EE6FB03CEDCF1000CCEF107
:10449000004E38BFAEF1010EA6FB0C584FF00007DE
:1044A000E6FB0E87A1FB08C6A0FB07CE16EB0E06A7
:1044B0004FF0000545F10005E1FB076515F1E04E01
:1044C0007EBFA4F580345FEA46066D4116F1800791
:1044D00045F100054FEA172747EA05674FEA15251A
:1044E0004FEA0666A6F1DE46B6F1805F20D938466F
:1044F00005EBC47124F0010C01EB0C11BCF1FE6F53
:1045000002D8F0BCBDE8008124425CBF01F5801EEA
:104510009EEAC47F02D4F0BCBDE80081244200F1D1
:104520003980A1F1C041F0BCBDE8004100F0C2B942
:104530004FEAD02040EA41504FEAD1214FEAD2223F
:1045400042EA43524FEAD323A7FB028607FB0366E6
:1045500005FB02661EEA0E0F58BFA6EB0056B6EB2F
:1045600000564FEA520E4EEAC37E18EB0E0E56EB83
:10457000530EBCD518EB02085E417F1C55F10005B7
:10458000B5E74FF480154FF000074FF000064FF0ED
:104590000008ACE701F1C04101F000414FF000001C
:1045A000F0BCBDE800810CEA131511EA0C1F00D025
:1045B0000CE013EA0C1F00F026804FF0000081EAA7
:1045C000030101F00041F0BCBDE80081F0BCBDE892
:1045D000004181EA030100F06DB9F0BCBDE8004183
:1045E00070B500F019F900BF097EFC3E00F007B875
:1045F0004FF0000081EA030101F00041704781EAB9
:10460000030100F057B9F0BCBDE8004122494FF06A
:1046100000007047FFFDFBF9F7F5F4F2F0EEEDEB6B
:10462000E9E8E6E4E3E1E0DEDDDBDAD8D7D5D4D3B0
:10463000D1D0CFCDCCCBCAC8C7C6C5C4C2C1C0BFFC
:10464000BEBDBCBBBAB9B8B7B6B5B4B3B2B1B0AF02
:10465000AEADACABAAA9A8A8A7A6A5A4A3A3A2A1E6
:10466000A09F9F9E9D9C9C9B9A99999897979695A1
:1046700095949393929191908F8F8E8E8D8C8C8B3D
:104680008B8A8989888887878685858484838382C5
:10469000828181800000FF070000F87FB0FA80F37C
:1046A00010FA03F10AD0C3F11D0303F580634FEA4A
:1046B00003524FEA415002EBD12170474FF0000006
:1046C0007047000070B5DFF848C11CEA111E1EBF1C
:1046D0001CEA13159EEA0C0F95EA0C0F00F06F8090
:1046E00081EA03044EEAD47EAE4421EA4C1123EA67
:1046F0004C1341F4801143F48013AEF17F7EA1FB93
:10470000024CA0FB0365361955EB0C05A1FB034CCD
:104710004CF10003A0FB021C16EB0C06654153F1A3
:104720000003094218BF46F0010613F4007F0BD1C5
:104730004FEA03314FEA053041EA155140EA16507D
:1047400034036FF003020AE04FEAC3214FEAC520A9
:1047500041EA555140EA5650F4026FF0020202EB72
:104760002E4201EB025585EACE710AD05FEA440C75
:1047700018BF24F0004450F1000041F1000120EA8C
:10478000D47040F2FE7C624500D270BDA84214BFD6
:104790004FF080444FF04044002E08BF0024BEF18B
:1047A000806FA8BFA1F1C041BDE8704080F2828057
:1047B00001F1C04101F000414FF0000070470CEAE8
:1047C00013159EEA0C0F18BF95EA0C0F06D081EA6C
:1047D000030E4FF000000EF0004170BD00F01CF819
:1047E0008900013E00F007B800F009B84FEA430C19
:1047F0005FEA5C5C08D081EA030100F05BB84FEA35
:10480000410C5FEA5C5CF6D102494FF00000704752
:104810000000FF070000F87F0EF1020E2EF0030EDD
:104820005EF8046B364205D4012A43EB030515F507
:10483000001F12D8012841EB010C1CF5001F0CD8F9
:104840000ED14FEAD17C0CEB4C0C0CF1020C15F59F
:10485000001F08BF4CEBD37C04E04FF0080C01E0D4
:104860004FEAD37C0CEB4C0526FA05F606F007065A
:10487000B6F1040C06D20EEB860CBDE870404CF08D
:10488000010C6047DFE80CF0090B02024FF0004119
:10489000A1F500214FF0000070BD19461046012817
:1048A00051EB010418BFD4F5001484BF002001F0BF
:1048B000004170BD0808A0F500114FEA31017047B2
:1048C00010B591EA030F48BF83F000433FF5ECAC0D
:1048D000841A71EB030C07D28CF0004C121943EBD5
:1048E0000C03001B61EB0C014FEA1154A4EB135CA9
:1048F000DFF8A4E11EEA430F18BF9EEA445F00F010
:10490000B48021EA045123EA6E035242C3EB6E03E2
:1049100038BF5B1EDCF1200E25D322FA0CFE10EB13
:104920000E0043FA0CFE41EB0E01CCF1200E03FA0F
:104930000EFE10EB0E00CCF1200E51F1000129D437
:1049400001EB045112FA0EF2BDE8104058BF704757
:10495000401C1CBFB2F1004F704700280CBF491C1F
:1049600020F00100704712EB020E43EB030218BF68
:104970004FF0010E4EEA4202ACF1200CDCF11E0EAB
:1049800056D943FA0CFE10EB0E00CCF11E0E51F17D
:10499000FF31D5D50EF1010E12FA0EFE404141EB6A
:1049A000010101EB445C5FEA5C5C10D901EB04514E
:1049B00010EBDE7038BFBEF1004FBDE8104018BFED
:1049C000704700280CBF491C20F00100704734D20A
:1049D0004FEAD42C24F4006411F500111BD0B1FA75
:1049E00081F20B3AA41AA41ED2F12003914030FAAE
:1049F00003F31943904001EBCC7101EB0451002CFF
:104A0000BDE81040A8BF704701F1C04101F000416E
:104A10004FF000007047B0FA80F310FA03F102D1B2
:104A2000BDE810407047E41A173C4805C90AE2E7A0
:104A300001EB0451BDE81040704749104FEA3000C7
:104A400001EB0451BDE8104002E04FF00001704757
:104A50004A0008BF0042F8D0B2F5001F28BF7047D7
:104A600001F000414FF0000070479EEA445F07D01C
:104A700011EA5E0FBDE8104004BF0021002070471E
:104A8000BDE8104070B5FFF7C7FE00BF40DFF63E3F
:104A9000104683F0004170470000E0FF43004FEAFA
:104AA000D30C4FEA3C0C43401FBF40070CF1605150
:104AB00013F0FE4F70471CF0006F03D10CF0004163
:104AC000002070470CF0004343EA507040EACC00ED
:104AD00010B500F033F900BF000000924FEA00016A
:104AE000FFF7E8BE4FF00041A1F500214FF00000B4
:104AF0007047000090EA010F48BF81F0004100F1CB
:104B00007081421A3CBF801A89184FEAD052A2EB3A
:104B1000D1534FF07F4C1CEA410F18BF9CEA026F43
:104B200000F03B804FF0004C4CEA00204CEA0121A1
:104B300021FA03FC10EB0C0C1ED202F1FF325FEAEB
:104B40001C2040EBC25038BF70471CF07F0F4FEA6B
:104B5000400C18BFBCF17F4F38BF7047C3F1200332
:104B6000994008BF20F00100BCF17F4F38BF70476B
:104B7000A0F1C04000F028B94FEA3C00000A40EB29
:104B8000C25028BF1CF0FF0F4FEA400CE6D018BF00
:104B9000BCF17F4F38BF7047EAE79CEA026F05D04F
:104BA00010EA5C0F08BF00F00040704710B500F03D
:104BB000C5F800BF64FBBE3E4FF47F0C1CEAD01268
:104BC0001EBF1CEAD11392EA0C0F93EA0C0F00F0FF
:104BD000858090EA010F48BF42F4807240F4000CD7
:104BE00041F400002CF07F4120F07F4000B5A2EBA3
:104BF000030281420FF2081CACEB504E9EF800E01D
:104C0000C0F100004FEA4E0E00FB0EFC38BF490019
:104C10004FEA2C1C0CFB0EF34FEACE1E0EEB635E2C
:104C20004FEA112C0EFB0CFC4FEAC1214FEA1C533A
:104C300000FB031102F5FA024FEA112C0EFB0CFCEB
:104C40004FEA01314FEADC4C00FB0C1142EB2242EF
:104C5000C14228BF09184CEB03335DF804EB10EB9D
:104C6000410143EBC250B2F57C0F38BF704729D5E4
:104C700012F0F00F1CBF00F1C04000F00040704780
:104C8000008182838485868788898B8C8D8E8F9125
:104C90009293959697999A9C9D9FA0A2A3A5A7A849
:104CA000AAACAEB0B2B3B5B7B9BCBEC0C2C5C7C975
:104CB000CCCED1D4D7D9DCDFE2E6E9ECF0F3F7FAD9
:104CC000FE0000004FEA400C0CF1807CBCF17E4FEE
:104CD00028BF7047B0F1C04000F076B80CEAD1139D
:104CE00090EA010F48BF42F48072624538BF6345C5
:104CF00007D213F47F0F16D080EA010000F00040C5
:104D0000704710B500F01AF8097EFC3E00F005B8B7
:104D100080EA010000F00040704780EA010000F0E6
:104D2000004000F051B812F47F0F04BF02487047F2
:104D300080EA010000F048B80000C07F0EF1020ECA
:104D40002EF0030E5EF8044B244204D44FEA4102D5
:104D5000B2F17F4F11D84FEA4003B3F17F4F0CD827
:104D60000ED14FEAD07C0CEB4C0C0CF1020CB2F1E2
:104D70007F4F08BF4CEBD17C04E04FF0080C01E002
:104D80004FEAD17C0CEB4C0324FA03F404F0070443
:104D9000B4F1040C06D20EEB840CBDE810404CF0CC
:104DA000010C6047DFE80CF0070802024FF00040FA
:104DB000A0F5800010BD0846420018BFD2F18072F5
:104DC00088BF00F0004010BDFF2141EAD050C0056F
:104DD0007047000090EA010F48BF81F000413FF5A5
:104DE00090AE421A04D882F00042A0EB02001144B7
:104DF0004FEAD052A2EBD1534FF07F4C1CEA410F47
:104E000018BF9CEA026F4AD04FF0004C4CEA0020D9
:104E10004CEA012121FA03FCB0EB0C0C0FD412F088
:104E2000FE0F36D05FEA4C001DD5001240EBC25099
:104E300038BF70471CF03F0F18BF70470BE05FEAA8
:104E40001C20A2F1010240EBC25038BF70471CF099
:104E50007F0F18BF7047C3F12003994014BF401E55
:104E600020F0010070474FEA1223800808BF704706
:104E7000B0FA80FCA2EB0C02CCF1280C60FA0CF02A
:104E800093EA122F04BF00EBC25070474FEAC37081
:104E90007047130A5FEADC1008BF7047F6E79CEA28
:104EA000026F04D010EA5C0F08BF0020704710B5F5
:104EB000FFF744FF40DFF63E81F000407047FBF70C
:104EC00005BB000002400000000000A00000000040
:104ED00005400000000000C8000000000C40000079
:104EE0000000409C00000000194000000020BCBEF3
:104EF0000000000034400000BFC91B8E0000000409
:104F0000B5400000504BCFD06607E2CF0100000053
:104F10006C4100003E8251AADFEEA7340100000080
:104F2000D9420000DCB5A0E23A301F97FFFFFFFF37
:104F3000B4450000FD25A0C8E9A3C14FFFFFFFFF56
:104F4000FF3F00000000008000000000FF3F000065
:104F500000000080000000000000000000000000D1
:104F6000010203040607080900000000010203040F
:104F7000010202030405060708090A0B0C0D0E0FB7
:104F80001010252E33663A00C84F0008000000209C
:104F90002000000028010008E84F00082000002041
:104FA000E8070000440100081C0000004300000066
:104FB000F8FFFFFF0C0000000E0000000F000000D3
:104FC0002E000000000000000000803F00000040B4
:104FD00031000000A4703D3E010000001000000000
:084FE0000024F40000000000B1
:04000005080000ED02
:00000001FF
