:020000040800F2
:10000000A007002089010008B11E0008A91E0008F1
:10001000AD1E000871030008C51E000800000000A6
:10002000000000000000000000000000B91E0008F1
:100030002904000800000000B51E0008BD1E0008CD
:10004000A3010008A3010008A3010008A301000800
:10005000A3010008A3010008A3010008A3010008F0
:10006000A3010008A3010008A30100081D04000863
:10007000A3010008A3010008A3010008A3010008D0
:10008000A3010008A3010008A3010008A3010008C0
:10009000A3010008A3010008A3010008A3010008B0
:1000A000A3010008A3010008A3010008A3010008A0
:1000B000A3010008A3010008A3010008A301000890
:1000C000A3010008A3010008A3010008A301000880
:1000D000A3010008A3010008A3010008A301000870
:1000E000A3010008A3010008A301000800F002F822
:1000F00000F03AF80AA090E8000C82448344AAF188
:100100000107DA4501D100F02FF8AFF2090EBAE885
:100110000F0013F0010F18BFFB1A43F0010318473B
:10012000F42B0000142C0000103A24BF78C878C1CA
:10013000FAD8520724BF30C830C144BF04680C60ED
:10014000704700000023002400250026103A28BF35
:1001500078C1FBD8520728BF30C148BF0B60704739
:100160001FB51FBD10B510BD00F031F81146FFF7E7
:10017000F7FF01F0CFFE00F04FF803B4FFF7F2FFF6
:1001800003BC00F057F800000948804709480047C1
:10019000FEE7FEE7FEE7FEE7FEE7FEE7FEE7FEE737
:1001A000FEE7FEE704480549054A064B7047000094
:1001B000C11E0008ED000008A0010020A0070020DB
:1001C000A0030020A00300207047704770477546C9
:1001D00000F02CF8AE4605006946534620F00700B3
:1001E000854618B020B5FFF7DDFFBDE820404FF091
:1001F00000064FF000074FF000084FF0000BAC4630
:10020000ACE8C009ACE8C009ACE8C009ACE8C0097A
:1002100021F007018D46704710B50446AFF300800A
:100220002046BDE81040FFF7A8BF00000048704717
:100230001000002001491820ABBEFEE72600020096
:10024000704700000146406A826A12F0500F03D0E6
:10025000006A026B084610470168826A42F4007225
:100260008262896801F46021B1F5602F01D1017BC0
:1002700011B100F0A7B900BF816A21F480718162D9
:10028000816AC90448BF00F09DB9816A41F001014B
:10029000816200F097B90000406A816A41F0400134
:1002A0008162C16A41F00401C16200F08FB90000AF
:1002B000406A00F089B90000B0B582B00446002061
:1002C000019021688A68D2074FD1886840F0010008
:1002D000886040F20800C2F2000000684DF68361B9
:1002E000C4F21B31A0FB0101880C01900198A0B160
:1002F000019801380190019878B101980138019076
:10030000019850B1019801380190019828B10198E5
:100310000138019001980028EAD100F003FE21681D
:100320008968C9071CD1054603E000BF8068C00783
:100330001AD100F0F7FD411B20680329F6D381682C
:10034000C907F3D1A06A40F01000A062E06A40F053
:100350000100E062002084F82400012002B0B0BD5A
:10036000002002B0B0BD00BF002002B0B0BD000050
:10037000FEE700002DE9F04381B00C4690E8420210
:10038000084602F0E3FB02F091FA40F20008C3F6DF
:10039000F8780022434602F08BF946F26667C4F211
:1003A0000A074FF066323B4602F082F94FF60065CD
:1003B000C4F2AF0500222B4602F020F801F0ECFF5A
:1003C0002060304602F0C2FB02F070FA0022434681
:1003D00002F06EF94FF066323B4602F069F90022F6
:1003E0002B4602F00BF801F0D7FF6060484602F0A0
:1003F000ADFB02F05BFA0022434602F059F94FF0E0
:1004000066323B4602F054F900222B4601F0F6FF1B
:1004100001F0C2FFA06001B0BDE8F08340F25810C7
:10042000C2F2000000F008BB70470000EFF310803C
:1004300072B600BFFEE7000010B581B00022009246
:1004400090F82420012A03D10221084601B010BDF2
:100450004B680122062B80F8242017D8D0F800C062
:1004600003EB83035A1F1F23DCF834E003FA02F482
:100470000B682EEA040403FA02F22243CCF834207B
:10048000092B03EB430219D936E000BFD0F800C0B6
:100490000C2B03EB83021DD8233A1F23DCF830E03A
:1004A00003FA02F40B682EEA040403FA02F2224370
:1004B000CCF83020092B03EB43021DD8DCF81030B8
:1004C000072489689440A34391401943CCF8101045
:1004D000002130E0413A1F23DCF82CE003FA02F45B
:1004E0000B682EEA040403FA02F22243CCF82C2013
:1004F000092B03EB4302E1D9DCF80CE01E3A072498
:10050000896894402EEA0404914023F001022143BB
:10051000102ACCF80C100DD142F20841C4F20101AE
:10052000A1F1080294450DD0816A41F02001816259
:10053000012100E00021002280F82420084601B0BB
:1005400010BD00BF0A68120230D40A68102B42F4B2
:1005500000020A602CD140F20801C2F200010968D1
:100560004DF68362C4F21B32A1FB0212910C01EB27
:100570008101490000910099E1B100990139009190
:100580000099C9B10099013900910099B1B1009960
:1005900001390091009999B10099013900910099B0
:1005A00000294FF00001E8D1C5E700BF0021C2E7F4
:1005B0000021C0E70021BEE70021BCE70021BAE727
:1005C0000021B8E770470000704700007047000046
:1005D0000068C06C70470000B0B5002800F0A8802B
:1005E0000446806A20B121688868C0070BD114E0F6
:1005F0000020E06284F82400204600F09BF8216887
:100600008868C00709D0886820F00100886000F081
:1006100089FC21688A68D20726D1A06AC0063AD42C
:10062000A06A41F2021290430230A062E069D4E96C
:10063000013240EA030C531EB3FA83F35D091346FB
:10064000B2F5807F18BF2B02207D257B01284CEA64
:10065000450030D135B3A56A45F02005A562E56AAD
:1006600045F00105E56226E0054602E08868C0071E
:10067000D3D000F057FC401B21680328F6D38868CC
:10068000C007F3D0A06A40F01000A062E06A40F01A
:100690000100E062A06AA06A40F01000A0620120A0
:1006A000B0BD00BFD4F818C04EF60005CFF6FF75F8
:1006B00005EB4C352B434D68B2F5807F25F4694539
:1006C00043EA05034B608B684FF2FD75CFF6E17589
:1006D00003EA050343EA00038B6001D0012A07D136
:1006E00022690023CFF6F07303EB025201E000BF52
:1006F0000022CB6A23F470031A43CA62896840F669
:10070000FE62CFF61F721140814207D10020E062E5
:10071000A16A012262F30101A162B0BDA06A40F0AA
:10072000100020F00200A062E06A40F00100E062E8
:100730000120B0BD2DE9F04186B00446006842F6C4
:100740000001C4F2010188424FF00001CDE904111B
:10075000CDE902115AD042F20041C4F201018842AF
:1007600075D141F21800C4F20200016840F600059C
:1007700041F4007101600168C4F2010501F40071E7
:1007800001910199016802AE41F004010160016824
:100790004FF0800801F004010191019901680327DD
:1007A00041F0080101600068314600F00800019046
:1007B00001982846CDF80880039700F09FFA05F5C8
:1007C00080603146CDE9027700F098FA40F2581582
:1007D0000820C2F20005C4F2020000214FF480722A
:1007E0004FF40063C5E900012846C5E90218C5E9D0
:1007F0000423C5E9061100F0EFF9002818BFFFF740
:1008000015FE25626C6206B0BDE8F08141F2180069
:10081000C4F20200016841F480610160016801F4E2
:10082000806101910199016841F004010160006853
:1008300002A900F0040001900198702002900320AA
:10084000039040F60000C4F2010000F057FA06B031
:10085000BDE8F08110B5044690F82400012804BFDB
:10086000022010BD012084F824002046FFF724FD5B
:1008700020B1002184F8241010BD00BF42F2044CC6
:100880002068A16AC4F2010C40F2013291430CF5D8
:100890007F7201F580719042A16233D0A16A21F488
:1008A0008011A1624168490504D5A16A012363F35F
:1008B0000D31A162A16A0023C9044FF0000144BFB9
:1008C000E16A21F00601E1626FF0020184F8243050
:1008D0000160816801F46021B1F5602F06D190427A
:1008E0000AD1DCF8001011F4702F05D0816841F4B2
:1008F00080118160002010BD816841F4A0018160F9
:10090000002010BDDCF8001011F4702FC6D0A16AD1
:1009100041F48011A162DCF800104905C5D4C9E793
:1009200070B515460446006842F60002C4F20102A2
:1009300090420E4605D042F20041C4F201018842C5
:1009400009D142F20440C4F20100006810F4702F93
:100950001CBF012070BD94F82400012804BF0220B0
:1009600070BD012084F824002046FFF7A5FC18B1D3
:10097000002184F8241070BD42F204402168A26A6C
:10098000C4F2010040F601739A4300F57F7302F54B
:1009900080729942A26243D0A06A20F48010A062C3
:1009A0004868400504D5A06A012262F30D30A062B8
:1009B000A26A0020D2044FF0000244BFE26A22F093
:1009C0000602E26284F82400206A40F24522C0F662
:1009D000000240F2B12340F2992C00F1280EC0F63B
:1009E0000003C0F6000C8EE80C106FF002020A60E3
:1009F0008A682B4642F480728A604C31324600F09D
:100A00002FF92068816801F460228168B2F5602FB7
:100A10000CBF41F4A00141F480118160002070BD41
:100A2000026812F4702FB7D0A26A42F48012A26258
:100A300000684005BCD5B6E710B5D0E90FCE016817
:100A4000DCF800300A6823FA0EF35C072AD512F0AE
:100A5000040427D00A68920603D40A6822F004022C
:100A60000A602F22C4F20202914240F20402C4F250
:100A700002025BDD3023C4F20203994272D04423A8
:100A8000C4F20203994273D05823C4F2020399427C
:100A900040F07A804FF480231360C16A002940F04F
:100AA00098806FE09C0727D512F0020424D00A68D2
:100AB000920606D40A6822F00A020A60012280F82F
:100AC00021202F22C4F20202914240F20402C4F219
:100AD00002023BDD3023C4F20203994260D044237A
:100AE000C4F2020399425FD05823C4F20203994230
:100AF00060D14FF4003365E01B0743D512F00802C4
:100B000008BF10BD0A6822F00E020A60012101FA36
:100B10000EF2CCF80420816380F82110016B0022D2
:100B2000002980F8202054D12CE000BF0823C4F213
:100B30000203994222D01C23C4F20203994223D11A
:100B400040231360C16A002943D11BE00823C4F28B
:100B5000020399422CD01C23C4F20203994229D1EA
:100B600020232FE04FF480631360C16A89BB09E042
:100B70004FF480431360C16A59BB03E00423136040
:100B8000C16A31BB10BD00BF02F168044FF0806341
:100B9000A14208BF4FF480031360C16AC9B9F1E7ED
:100BA0004FF400730EE000BF4FF400530AE000BFA3
:100BB000022307E002F168044FF00073A14208BF6E
:100BC0004FF400131360816A0022002980F820206E
:100BD000D8D0BDE810400847014600284FF001007A
:100BE00008BF70472DE9F043D1F800C04FF6F87305
:100BF000CBF6FD734CF6CD426344CCF6CC42A3FB5E
:100C000002236FF0030707EA93030027C4F20207E9
:100C100001F10C09C1E90F730223D1E9012E99E812
:100C20007002D1F81C8081F82130DCF8003043F6E6
:100C3000F077BB431A4342EA0E0222432A4332436F
:100C400042EA090242EA0802CCF8002000228A6344
:100C500081F8210081F820200020BDE8F043704792
:100C6000F0B590F820C0BCF1010F32D04FF0010E6A
:100C700080F820E090F821C0BCF1010F26D14FF0A0
:100C8000020C80F821C04FF0000CC0F838C0D0E949
:100C900000C4C56AC66BDCF80070102C27F0010791
:100CA000CCF80070006C0EFA00F070600846CCF8CA
:100CB000043004BF10460A46CCF80800CCF80C20DB
:100CC000DCF8000045B140F00E000DE0002180F896
:100CD00020100220F0BD00BF20F00400CCF800007E
:100CE000DCF8000040F00A00CCF80000DCF800005E
:100CF00040F00100CCF800000020F0BD2DE9F04FDD
:100D000082B00E68002E00F0038141F20042C4F26E
:100D10000102042340F2004E904208BF03234FF625
:100D2000FF7CC4F2010E009300240123C1F2100CD9
:100D30004FF0000A4FF0000949E000BF012704F01E
:100D40000C030F229A402BEA020207FA03F34FEA40
:100D50009A051A4346F82520D1F804B040F20C4514
:100D60005FEACB22DEF8082054BF22EA080242EAFA
:100D70000802C4F20105CEF808202A685FEA8B2336
:100D800054BF22EA080242EA08022A605FEA8B3373
:100D9000DEF8042054BF22EA080242EA08025FEAB1
:100DA000CB33CEF80420DEF800204FF0010354BF0F
:100DB00022EA080242EA0802CEF800200E680AF190
:100DC000010A36FA0AF204F1040400F0A18003FAE1
:100DD0000AF816EA080FF1D04E68664512DC122EAA
:100DE00056D8DFE806F0350B45495555555555554C
:100DF000555555555555554D510000BFD1F80C90DE
:100E000046E000BF4FF6FF72C1F2210296420FDCAE
:100E10000022C1F2110296421AD00022C1F212023F
:100E2000964215D00022C1F22102964210D02FE046
:100E30000022C1F2220296420AD00022C1F23102FF
:100E4000964205D00022C1F23202964220D100BF64
:100E50008A684AB1012A14BFC0F81480C0F8108013
:100E60004FF0080914E000BF4FF0040910E000BF84
:100E7000CA6802F108090BE04FF0000908E000BF62
:100E8000CA6802F1040903E0CA6802F10C0900BF54
:100E900022460646BAF1080F24BF203A04363768C6
:100EA0000F25954027EA050509FA02F22A43326028
:100EB000CA79D2067FF582AF41F21803C4F2020369
:100EC0001A68AEF57E7642F001021A601A6802F0E6
:100ED00001020192019A2AF0030256F802B040F68C
:100EE0000002C4F20102904210D040F60042C4F267
:100EF000010290423FF422AF41F20002C4F201022B
:100F0000009F904208BF022719E700BF002716E79D
:100F100002B0BDE8F08F00008068084018BF0120D3
:100F20007047000040F29C10C2F200000068704759
:100F300040F2000040F29C11C2F20000C2F2000137
:100F400000780A68104408607047000080B542F2DB
:100F50000000C4F20200016841F0100101600320AA
:100F600000F08EF80F2000F005F800F027F80020C0
:100F700080BD000070B540F20006C2F2000640F2EB
:100F800008013278C2F200014FF47A730968B3FBAA
:100F9000F2F20446B1FBF2F1084600F0C1FB0F2C5F
:100FA0004FF0010508D838B94FF0FF302146002234
:100FB000002500F039F87460284670BD82B041F217
:100FC0001800C4F202000168022241F00101016030
:100FD000016801F0010101910199416841F08051DE
:100FE0004160406800F08050009000980420C4F2F6
:100FF0000100016862F31A61016002B070470000ED
:10100000002848BF7047C1B200F01F00012202FA59
:1010100000F04EF20012CEF2000242EAD10121F0BD
:10102000030108607047000010B54EF60C5CCEF26C
:10103000000CDCF80030C3F3022E8EF00704042C01
:1010400028BF0424BEF103034FF0FF3E0EFA04F460
:1010500038BF0023A14399400EFA03F39A4311438A
:1010600000F00F0200F160430901043A03F5644304
:101070006244002848BF02F10C03197010BD000043
:101080004EF60C51CEF200010A684FF6FF031A40EB
:1010900060F30A2242F0806040F0FD700860704703
:1010A0002DE9F04182B00446007841F21C06C007E9
:1010B000C4F202064AD0306810F0805808D1306877
:1010C00040F080503060306800F08050019001980E
:1010D00047F20007C4F200073868C00512D4386828
:1010E00040F480703860FFF71DFF05463868C00582
:1010F00008D4FFF717FF401B6428F7D9032002B07C
:10110000BDE8F081706810F4407012D0616801F49D
:10111000407188420DD0706840F24042C4F24222D1
:10112000012320F4407113600023C0071360716035
:101130002AD17068616820F440700843B8F1000F4C
:10114000706003D1306820F08050306020688107E3
:1011500007D556F8181CA26821F44041114346F8FF
:10116000181CC00604D4002002B0BDE8F08100BF06
:1011700056F8180CE16820F48000084346F8180C73
:10118000002002B0BDE8F081FFF7CCFE054641F239
:10119000883700BF70688007CBD4FFF7C3FE401BC1
:1011A000B8424FF00300F5D9EBE700002DE9F0431A
:1011B00081B0002800F0858042F20008C4F20208E5
:1011C0000446D8F800000D4600F0070088420CD213
:1011D000D8F8000020F007002843C8F80000D8F82D
:1011E000000000F00700A8426BD1206841F204091A
:1011F0008107C4F2020917D5410705D5D9F80010B7
:1012000041F4E061C9F80010010705D5D9F80010D4
:1012100041F46051C9F80010D9F80010A26821F01B
:10122000F0011143C9F80010C00741D1D8F80000FF
:1012300000F00700A8420CD9D8F8000020F0070001
:101240002843C8F80000D8F8000000F00700A842C2
:1012500037D12068410707D5D9F80010E26821F49A
:10126000E0611143C9F80010000708D5D9F8000063
:10127000216920F4605040EAC100C9F80000D9F8A3
:10128000002002F00C00082841F20020C0F27A0091
:1012900050D142F60453C2F38341C0F60003595CB7
:1012A000D2033BD440F60010C0F23D00484341E079
:1012B000606802280AD001282AD159F8041C890341
:1012C00008D4012001B0BDE8F08300BF59F8041C28
:1012D0008901F6D5D9F8001021F003010843C9F8B7
:1012E0000000FFF71FFE064641F28837D9F80000DC
:1012F000616800F00C00B0EB810F97D0FFF712FE91
:10130000801BB842F2D9032001B0BDE8F08300BFD2
:1013100059F8041C8907D4D5DCE700BFD9F80020B0
:1013200042F60253C2F34042C0F600039A5C4843BF
:10133000B0FBF2F0D9F8001042F6F242C1F303110B
:10134000C0F60002515C40F2080220FA01F140F2BE
:101350000400C2F200000068C2F200021160FFF750
:1013600009FE002001B0BDE8F08300002DE9F04146
:1013700082B0002868D00446007841F20006C00719
:10138000C4F2020625D0706800F00C0004281BD0BF
:10139000706800F00C00082802D17068C00313D4F4
:1013A0006068002800F06881B0F5A02F00F07C8113
:1013B000B0F5803F00F07C81306820F480303060F0
:1013C000306820F4802076E13068800301D56068C1
:1013D000D0B32078800718D5706810F00C0F07D0B4
:1013E000706800F00C0008286ED17068C0036BD4E0
:1013F0003068800702D52069012825D130686169ED
:1014000020F0F80040EAC1003060207800071FD4C7
:101410002078400732D4E56995B1706800F00C007F
:10142000082840F08F80012D0ED07068216A00F4EA
:1014300080328A4208D1616A00F47010884203D178
:10144000002002B0BDE8F081012002B0BDE8F081CB
:10145000A069002862D00020C4F242200121C0F817
:101460008014FFF75FFD0546706A800700F18C80ED
:10147000FFF758FD401B0228F6D92AE1F06910F069
:10148000805808D1F06940F08050F061F06900F0B8
:1014900080500090009847F20007C4F200073868B7
:1014A000C00529D4386840F480703860FFF73AFDF1
:1014B000054600BF3868C0051ED4FFF733FD401B4A
:1014C0006428F7D905E100BF2069002840F2000038
:1014D000C4F2422000F0828001210160FFF722FD6A
:1014E000054600BF306880073FF588AFFFF71AFD5B
:1014F000401B0228F6D9ECE0E068002800F080806C
:10150000052800F09780012800F09880306A20F0CC
:1015100001003062306A20F0040092E00020C4F242
:1015200042200021C0F88014FFF7FCFC054600BFF4
:10153000706A80077FF56CAFFFF7F4FC401B022850
:10154000F6D9C6E00027C4F2422700203866FFF72C
:10155000E9FC022D05460BD13068800140F1BE80C8
:10156000FFF7E0FC401B02284FF00300F4D968E7C6
:10157000306880017FF564AFFFF7D4FC401B022880
:101580004FF00300F4D95CE740F20800C2F200001B
:10159000006844F6D351C1F26201A0FB0101480A80
:1015A000019000BF00BF0198411E002801913FF447
:1015B0002FAF00BF0198411E002801913FF428AFD2
:1015C00000BF0198411E002801913FF421AF00BFE8
:1015D0000198411E00280191E4D119E70021016022
:1015E000FFF7A0FC054600BF306880077FF50DAF10
:1015F000FFF798FC401B02284FF00300F4D920E7C6
:10160000306A20F001003062306A20F0040030625D
:10161000FFF788FC054641F2883700BF306A800733
:1016200020D5FFF77FFC401BB8424FF00300F5D9EF
:1016300007E700BF306A40F004003062306A40F0D3
:1016400001003062FFF76EFC054641F2883700BFAB
:10165000306A800706D4FFF765FC401BB842F7D913
:1016600037E000BFB8F1000F7FF4D5AEF06920F08D
:101670008050F061CFE600BF306820F480303060E9
:10168000306820F480203060FFF74CFC054600BF36
:10169000306880037FF59DAEFFF744FC401B642853
:1016A0004FF00300F4D9CCE6306840F4802030607D
:1016B000306840F480303060FFF734FC054600BFEE
:1016C000306880033FF585AEFFF72CFC401B642893
:1016D000F6D9032002B0BDE8F08100BF206AB0F562
:1016E000803F05D17168A26821F400311143716017
:1016F0007168626A21F4741111430843706001201B
:101700003866FFF70FFC0446306880013FF598AE5D
:10171000FFF708FC001B02284FF00300F4D990E605
:10172000411E0020B0EB116F1CBF012070474EF22C
:101730001002CEF2000251604EF62351CEF20001AB
:10174000F0230B70072190601160704710B590F87E
:101750003C20012A4FF0020233D080F83D2002687D
:10176000D2F804E0D2F808C00C682EF070032343CE
:1017700040F2FF74C4F20004A24253600ADCB2F1EA
:10178000804F13D040F20043C4F200039A420DD0C0
:1017900011E000BF42F60043C4F201039A4205D0B3
:1017A00040F60003C4F200039A4204D149682CF0C9
:1017B0008003194391600121002280F83D1080F8D8
:1017C0003C20104610BD0000002804BF01207047D7
:1017D00010B5044690F83D0028B9002084F83C007C
:1017E000204600F067F8022084F83D00206840F2AF
:1017F000FF730268C4F2000342F6004C9842C4F240
:10180000010C15DCB0F1804F1AD040F20041C4F257
:101810000001884214D0984218DCB0F1804F1DD0EE
:1018200040F20041C4F20001884217D01AE000BF24
:10183000604505D040F60001C4F200018842EAD1BB
:10184000A16822F070020A439842E6DD604505D0A7
:1018500040F60001C4F20001884203D1216922F45C
:1018600040720A43A36922F08001D4F804E0E268E0
:10187000194360450160C262C0F828E002D1616985
:10188000CCF8301001214161002084F8461084F822
:101890003E1084F83F1084F8401084F8411084F81A
:1018A000421084F8431084F8441084F8451084F8FA
:1018B0003D1010BD81B00068B0F1804F02D001B082
:1018C000704700BF41F21C00C4F20200016841F001
:1018D00001010160006800F001000090009801B073
:1018E0007047000080B590F83C20012A4FF00202BA
:1018F00000F0C28080F83D20D0F800C04FF677722B
:10190000DCF8083023EA0202CCF808200B684F2BE1
:1019100028DC1F2B44DD202B45D0302B43D0402B1F
:1019200040F0AC80D1F804E0C968DCF82030DCF885
:10193000202022F00102CCF82020DCF8182022F030
:10194000F00242EA011123F00A0242EA0E02CCF848
:101950001810CCF82020DCF8081041F0470121F0E5
:10196000300180E06F2B27DDB3F5005F48D0B3F581
:10197000805F7AD0702B40F08180D1E901E3C968A3
:10198000DCF8082043EA0E0322F47F4243EA0121F7
:101990001143CCF80810DCF8081041F0770162E040
:1019A0000BB1102B6AD1DCF8081021F0700119433B
:1019B00041F0070157E000BF502B35D0602B5DD1BF
:1019C000D1F804E0C968DCF82030DCF8202022F0EF
:1019D0001002CCF82020DCF8182022F4704242EAF1
:1019E000013123F0A00242EA0E12CCF81810CCF814
:1019F0002020DCF8081041F0670121F0100132E0EE
:101A0000D1E901E3C968DCF8082043EA0E0322F4B7
:101A10007F4243EA01211143CCF80810DCF808109A
:101A200041F480411FE000BFD1F804E0C968DCF850
:101A30002030DCF8202022F00102CCF82020DCF855
:101A4000182022F0F00242EA011123F00A0242EAD1
:101A50000E02CCF81810CCF82020DCF8081041F069
:101A6000570121F02001CCF808100022012180F854
:101A70003D10002180F83C10104680BD0122F5E7A2
:101A800080B586B000680021B0F1804F049101D08C
:101A900006B080BD41F21800C4F20200016841F0B6
:101AA00004010160006802A900F00400019001989F
:101AB0000E20029002200390059040F60000C4F230
:101AC0000100FFF71BF906B080BD00002DE9F043CF
:101AD00090F83C30012B04BF0220BDE8F0834FEAB0
:101AE000B202032A3CD8DFE802F0034381BD00BF05
:101AF000036842F600461D6A1A6AC4F2010622F023
:101B000001021A621A465C6852F818CFB3428E6816
:101B1000D1F800E025F0020545EA06050CD1CE68B3
:101B2000D1E9057824F4407425F00C0526F004066C
:101B30003C43354344EA08042CF0730747EA0E0798
:101B40005C609F614F6809695F631D629F6947F030
:101B500008079F619F6927F004079F61B2E000BFFB
:101B60000121002280F83C200846BDE8F08300BF38
:101B7000036842F600461D6A1A6AC4F2010622F0A2
:101B800010021A621A46D3F804C052F8184FB34232
:101B90008E68D1F800E025F0200545EA061510D141
:101BA000CE68D1E9058725F0C0096FF0400505EA48
:101BB00006152CF4406647EA080745EA090546EA97
:101BC000870C24F4E64444EA0E27C3F804C09F615E
:101BD0004F6809699F631D629F6947F400679F61B1
:101BE0009F6927F480679F616BE000BF036842F63E
:101BF00000461D6A1A6AC4F2010622F480721A6253
:101C00001A46D3F804C052F81CEFB3428E680C6831
:101C100025F4007545EA062511D1CE68D1E905877E
:101C200025F44069360240F2FF4526EA05052CF40A
:101C3000405647EA080745EA090546EA071C2EF020
:101C400073072743C3F804C0DF614F680969DF6386
:101C50001D62DF6947F00807DF61DF6927F00407CD
:101C6000DF612FE0036842F60047D3F820C01A6A0C
:101C7000C4F2010722F480521A621A465C6852F8D4
:101C80001C5FD1F800E08E68BB4204D14F6924F498
:101C9000804444EA87142CF4005747EA063725F4B9
:101CA000E64646EA0E265C60DE614E6809691E64FF
:101CB0001F62DF6947F40067DF61DF6927F480672F
:101CC000DF6109021368194311600021002280F8C6
:101CD0003C200846BDE8F083002804BF012070477F
:101CE00010B5044690F83D0028B9002084F83C0067
:101CF000204600F067F8022084F83D00206840F29A
:101D0000FF730268C4F2000342F6004C9842C4F22A
:101D1000010C15DCB0F1804F1AD040F20041C4F242
:101D20000001884214D0984218DCB0F1804F1DD0D9
:101D300040F20041C4F20001884217D01AE000BF0F
:101D4000604505D040F60001C4F200018842EAD1A6
:101D5000A16822F070020A439842E6DD604505D092
:101D600040F60001C4F20001884203D1216922F447
:101D700040720A43A36922F08001D4F804E0E268CB
:101D8000194360450160C262C0F828E002D1616970
:101D9000CCF8301001214161002084F8461084F80D
:101DA0003E1084F83F1084F8401084F8411084F805
:101DB000421084F8431084F8441084F8451084F8E5
:101DC0003D1010BD7047000041B1082910D0042912
:101DD00014BF00F1410200F13F020BE090F83E20F9
:101DE000012A1CBF01207047022280F83E2013E028
:101DF00000F140021278012A1CBF01207047022224
:101E0000082907D0042914BF80F8412080F83F201A
:101E100002E000BF80F84020006801F01F010122AD
:101E2000036A8A4023EA02010162036A42F64441DE
:101E3000C4F201011A43A1F14403984202620FD097
:101E400040F2FF71C4F20001884213DCB0F1804F10
:101E50001CD040F20041C4F20001884216D01CE0C0
:101E60000A6842F400420A6040F2FF71C4F20001C5
:101E70008842EBDD42F60041C4F20101884205D000
:101E800040F60001C4F20001884206D1816801F0E9
:101E90000701062904BF00207047016841F00101D5
:101EA0000160002070470000FEE70000FEE7000030
:101EB000FEE700007047000070470000FFF738B8E9
:101EC00070470000FEE700000021B0F5FA7F88BFF0
:101ED0000121084670470000B0B540F60045C4F245
:101EE000010528460821FFF717F804462846102167
:101EF000FFF712F8002C02BF01280120B0BD002816
:101F000002BF012C0220B0BD20434FF0000008BFEB
:101F10000320B0BD9AB0FFF719F800240120CDE9E5
:101F20001544CDE913441490102015904FF4E0109F
:101F30000225199010A8CDE911440994CDE9074470
:101F40001095CDE91754FFF711FA28B1EFF310807F
:101F500072B600BFFEE700BF0F20CDE90B054FF4BE
:101F60008060CDE90E040BA801210D94FFF71EF946
:101F700020B1EFF3108072B6FEE700BF022006909A
:101F80004FF48040089006A8FFF78AF820B1EFF3DD
:101F9000108072B6FEE700BF002441F218051394CA
:101FA000C4F20205286840F6004640F02000286090
:101FB0002868C4F2010600F020000B900B982868F6
:101FC00010A940F004002860286800F004000B907D
:101FD0000B98286840F008002860286800F0080086
:101FE0000B900B981820CDE9100430461294FEF7A0
:101FF00085FE55F8040C002140F0010045F8040C62
:1020000055F8040C002200F00100109010980B20ED
:10201000FFF70AF80B20FEF7F3FF40F2E00006F5A9
:10202000C051C2F200004FF4807201254FF46023CA
:10203000C0E90014032105730475C3618260016166
:10204000FEF7CAFA20B1EFF3108072B6FEE700BFC8
:102050000720CDE91005129040F2E000C2F2000026
:1020600010A9FEF7E9F928B1EFF3108072B600BFAE
:10207000FEE700BF082010900220119040F2E0001F
:10208000C2F2000010A9FEF7D7F928B1EFF31080D3
:1020900072B600BFFEE700BF092040F2E0041090D6
:1020A0000320C2F20004119010A92046FEF7C4F9E3
:1020B00020B1EFF3108072B6FEE700BF4FF0804210
:1020C0002046002140F8302F232240F2E7330E91C2
:1020D000CDE90C11CDE90611CDE91511CDE91311AA
:1020E000C0E90121C0E903318161FFF76DFB28B12F
:1020F000EFF3108072B600BFFEE700BF4FF48050D0
:1021000030340B900BA92046FFF7ECFB20B1EFF326
:10211000108072B6FEE700BF2046FFF7DDFD28B154
:10212000EFF3108072B600BFFEE700BF06A920469D
:102130000394FFF70BFB18B1EFF3108072B6FEE7C4
:10214000602010900020CDE911001490039810A990
:102150000422FFF7BBFC18B1EFF3108072B6FEE764
:10216000039810A90822FFF7B1FC18B1EFF3108013
:1021700072B6FEE7039810A90C22FFF7A7FC18B16E
:10218000EFF3108072B6FEE70398FFF779FC40F298
:102190007009C2F2000906F5E051484640F8401FB8
:1021A000002401254FF4602105730475C161C0E965
:1021B00001440561FEF710FA20B1EFF3108072B60A
:1021C000FEE700BF0420CDE9100509F1400010A989
:1021D00012940490FEF730F920B1EFF3108072B63C
:1021E000FEE700BF039C04212046FFF7EDFD2046DB
:1021F0000821FFF7E9FD20460C21FFF7E5FD09F175
:102200000800029009F11C000190019F09F12800CB
:10221000059002E0204600F09BF8FEF783FE049D47
:10222000C9F80C000020C9E90400C9F818002846C4
:10223000FEF710FB2846FEF7CBF9A9F8000080B2A4
:10224000FFF742FE0028E5D0FFF746FE012807DB36
:10225000FFF742FEC9F80400FEF764FEC9F8080063
:10226000D9F80430029940F6B830224600F042F81E
:102270004FF47A7B40F2E000C2F2000039460322BC
:10228000FEF74EFB05993846FEF774F809F1100584
:1022900032CDD9F8280000F035FB0646D9F82C00DD
:1022A0002146C9F8106000F02DFB8046D9F83000B7
:1022B0002946C9F8148000F025FBBBF1010BC9F8D1
:1022C0001800D7D10024C4F27A4482463046214611
:1022D00000F07AFBC9F834004046214600F074FB58
:1022E000C9F838005046214600F06EFB039CC9F83F
:1022F0003C0092E7F0B581B01D4614460E460746F5
:10230000FEF710FE3168401AB8420BD2032D13D0ED
:10231000022D17D0012D0CD1204601B0BDE8F040B0
:1023200000F01CB8204600F031F8FEF7FBFD384401
:10233000306001B0F0BD00BF204601B0BDE8F04004
:1023400000F014B8204601B0BDE8F04000F016B827
:10235000006800218163C1630164704700684FF425
:102360007A718163C163C8210164704700684FF4CA
:102370007A718163C1630164704700000068C821FD
:1023800081634FF47A71C163016470470068C821AA
:102390008163C1630164704721F0004201F0004392
:1023A000A2F16052B2F5801F28BFD2F17F6C0BD929
:1023B0005FEA001C43EAC20242EB507018BF70474C
:1023C00028BF20F001007047B2F5801FBCBF18463F
:1023D00070474FEA410C1CF5001F02D2084600F07E
:1023E0000EBC70B500F00EFA00000089FFF7F6BFD2
:1023F0004FF00040A0F58000704700002DE9C0417B
:1024000030B4DFF8A4C23CEA111418BF3CEA13143C
:1024100000F0ED801CEA111481EA030544EAD5744A
:1024200018BF1CEA131500F0C880A4EB050404F1E2
:102430007F7404F500344FF0004545EAC12145EAB8
:10244000C32341EA505143EA52534FEAC0204FEAB6
:10245000C222994208BF904200F09D804FEA136566
:102460000FF24416765D4FEA134506FB05F7C7F1F8
:10247000807706FB07F74FEAD737A7FB036876425A
:10248000A7FB06CEC8F5803838BFA8F1010807FBC6
:1024900008E6A6FB028C4FF0000EE6FB03CEDCF153
:1024A000000CCEF1004E38BFAEF1010EA6FB0C5869
:1024B0004FF00007E6FB0E87A1FB08C6A0FB07CE86
:1024C00016EB0E064FF0000545F10005E1FB076530
:1024D00015F1E04E7EBFA4F580345FEA46066D41FB
:1024E00016F1800745F100054FEA172747EA05670F
:1024F0004FEA15254FEA0666A6F1DE46B6F1805F83
:1025000020D9384605EBC47124F0010C01EB0C1105
:10251000BCF1FE6F02D8F0BCBDE8008124425CBF74
:1025200001F5801E9EEAC47F02D4F0BCBDE80081A4
:10253000244200F13980A1F1C041F0BCBDE8004166
:1025400000F0AEB94FEAD02040EA41504FEAD12125
:102550004FEAD22242EA43524FEAD323A7FB028634
:1025600007FB036605FB02661EEA0E0F58BFA6EBCB
:102570000056B6EB00564FEA520E4EEAC37E18EBF9
:102580000E0E56EB530EBCD518EB02085E417F1CB5
:1025900055F10005B5E74FF480154FF000074FF0F7
:1025A00000064FF00008ACE701F1C04101F0004126
:1025B0004FF00000F0BCBDE800810CEA131511EAF1
:1025C0000C1F00D00CE013EA0C1F00F026804FF027
:1025D000000081EA030101F00041F0BCBDE8008188
:1025E000F0BCBDE8004181EA030100F059B9F0BC3C
:1025F000BDE8004170B500F005F900BF097EFC3E62
:1026000000F007B84FF0000081EA030101F000413B
:10261000704781EA030100F043B9F0BCBDE8004116
:1026200022494FF000007047FFFDFBF9F7F5F4F287
:10263000F0EEEDEBE9E8E6E4E3E1E0DEDDDBDAD85D
:10264000D7D5D4D3D1D0CFCDCCCBCAC8C7C6C5C4BB
:10265000C2C1C0BFBEBDBCBBBAB9B8B7B6B5B4B3D2
:10266000B2B1B0AFAEADACABAAA9A8A8A7A6A5A4BD
:10267000A3A3A2A1A09F9F9E9D9C9C9B9A99999881
:102680009797969595949393929191908F8F8E8E24
:102690008D8C8C8B8B8A89898888878786858584B1
:1026A00084838382828181800000FF070000F87F9D
:1026B00070B5DFF848C11CEA111E1EBF1CEA1315D5
:1026C0009EEA0C0F95EA0C0F00F06F8081EA03047C
:1026D0004EEAD47EAE4421EA4C1123EA4C1341F475
:1026E000801143F48013AEF17F7EA1FB024CA0FB6E
:1026F0000365361955EB0C05A1FB034C4CF10003A7
:10270000A0FB021C16EB0C06654153F100030942C5
:1027100018BF46F0010613F4007F0BD14FEA0331D6
:102720004FEA053041EA155140EA165034036FF084
:1027300003020AE04FEAC3214FEAC52041EA55519E
:1027400040EA5650F4026FF0020202EB2E4201EB17
:10275000025585EACE710AD05FEA440C18BF24F016
:10276000004450F1000041F1000120EAD47040F231
:10277000FE7C624500D270BDA84214BF4FF0804479
:102780004FF04044002E08BF0024BEF1806FA8BF68
:10279000A1F1C041BDE8704080F2828001F1C041EA
:1027A00001F000414FF0000070470CEA13159EEA5B
:1027B0000C0F18BF95EA0C0F06D081EA030E4FF0FC
:1027C00000000EF0004170BD00F01CF88900013ED1
:1027D00000F007B800F009B84FEA430C5FEA5C5C10
:1027E00008D081EA030100F05BB84FEA410C5FEAD0
:1027F0005C5CF6D102494FF0000070470000FF0713
:102800000000F87F0EF1020E2EF0030E5EF8046B4E
:10281000364205D4012A43EB030515F5001F12D8F3
:10282000012841EB010C1CF5001F0CD80ED14FEA1A
:10283000D17C0CEB4C0C0CF1020C15F5001F08BF01
:102840004CEBD37C04E04FF0080C01E04FEAD37C62
:102850000CEB4C0526FA05F606F00706B6F1040C5B
:1028600006D20EEB860CBDE870404CF0010C6047C0
:10287000DFE80CF0090B02024FF00041A1F5002146
:102880004FF0000070BD19461046012851EB0104BD
:1028900018BFD4F5001484BF002001F0004170BDC2
:1028A0000808A0F500114FEA3101704743004FEAD4
:1028B000D30C4FEA3C0C43401FBF40070CF1605162
:1028C00013F0FE4F70471CF0006F03D10CF0004175
:1028D000002070470CF0004343EA507040EACC00FF
:1028E00010B500F046F900BF000000924FEA000169
:1028F000FFF7D6BF4FF00041A1F500214FF00000D7
:102900007047000090EA010F48BF81F0004100F1DC
:102910008281421A3CBF801A89184FEAD052A2EB3A
:10292000D1534FF07F4C1CEA410F18BF9CEA026F55
:1029300000F03B804FF0004C4CEA00204CEA0121B3
:1029400021FA03FC10EB0C0C1ED202F1FF325FEAFD
:102950001C2040EBC25038BF70471CF07F0F4FEA7D
:10296000400C18BFBCF17F4F38BF7047C3F1200344
:10297000994008BF20F00100BCF17F4F38BF70477D
:10298000A0F1C04000F03BB94FEA3C00000A40EB28
:10299000C25028BF1CF0FF0F4FEA400CE6D018BF12
:1029A000BCF17F4F38BF7047EAE79CEA026F05D061
:1029B00010EA5C0F08BF00F00040704710B500F04F
:1029C000D8F800BF64FBBE3E4FF47F0C1CEAD01267
:1029D0001EBF1CEAD11392EA0C0F93EA0C0F00F011
:1029E000858090EA010F48BF42F4807240F4000CE9
:1029F00041F400002CF07F4120F07F4000B5A2EBB5
:102A0000030281420FF2081CACEB504E9EF800E02E
:102A1000C0F100004FEA4E0E00FB0EFC38BF49002B
:102A20004FEA2C1C0CFB0EF34FEACE1E0EEB635E3E
:102A30004FEA112C0EFB0CFC4FEAC1214FEA1C534C
:102A400000FB031102F5FA024FEA112C0EFB0CFCFD
:102A50004FEA01314FEADC4C00FB0C1142EB224201
:102A6000C14228BF09184CEB03335DF804EB10EBAF
:102A7000410143EBC250B2F57C0F38BF704729D5F6
:102A800012F0F00F1CBF00F1C04000F00040704792
:102A9000008182838485868788898B8C8D8E8F9137
:102AA0009293959697999A9C9D9FA0A2A3A5A7A85B
:102AB000AAACAEB0B2B3B5B7B9BCBEC0C2C5C7C987
:102AC000CCCED1D4D7D9DCDFE2E6E9ECF0F3F7FAEB
:102AD000FE0000004FEA400C0CF1807CBCF17E4F00
:102AE00028BF7047B0F1C04000F089B80CEAD1139C
:102AF00090EA010F48BF42F48072624538BF6345D7
:102B000007D213F47F0F16D080EA010000F00040D6
:102B1000704710B500F02DF8097EFC3E00F005B8B6
:102B200080EA010000F00040704780EA010000F0F8
:102B3000004000F064B812F47F0F04BF02487047F1
:102B400080EA010000F05BB80000C07FB0FA80F3BB
:102B500010FA03F2C3F19D030AD0D90501EB12204C
:102B6000530638BF704700F1010008BF20F0010094
:102B700070470EF1020E2EF0030E5EF8044B244255
:102B800004D44FEA4102B2F17F4F11D84FEA40031B
:102B9000B3F17F4F0CD80ED14FEAD07C0CEB4C0C2C
:102BA0000CF1020CB2F17F4F08BF4CEBD17C04E07A
:102BB0004FF0080C01E04FEAD17C0CEB4C0324FAF7
:102BC00003F404F00704B4F1040C06D20EEB840CF9
:102BD000BDE810404CF0010C6047DFE80CF007083E
:102BE00002024FF00040A0F5800010BD08464200F0
:102BF00018BFD2F1807288BF00F0004010BDFF21E5
:102C000041EAD050C005704790EA010F48BF81F0FB
:102C100000413FF57EAE421A04D882F00042A0EB9C
:102C2000020011444FEAD052A2EBD1534FF07F4C37
:102C30001CEA410F18BF9CEA026F4AD04FF0004CCB
:102C40004CEA00204CEA012121FA03FCB0EB0C0C09
:102C50000FD412F0FE0F36D05FEA4C001DD50012E3
:102C600040EBC25038BF70471CF03F0F18BF704791
:102C70000BE05FEA1C20A2F1010240EBC25038BF1A
:102C800070471CF07F0F18BF7047C3F120039940B5
:102C900014BF401E20F0010070474FEA1223800845
:102CA00008BF7047B0FA80FCA2EB0C02CCF1280CF4
:102CB00060FA0CF093EA122F04BF00EBC250704789
:102CC0004FEAC3707047130A5FEADC1008BF704711
:102CD000F6E79CEA026F04D010EA5C0F08BF002000
:102CE000704710B5FFF745FF40DFF63E81F000402A
:102CF0007047000000000000000001020304060706
:102D00000809010202030405060708090A0B0C0D55
:102D10000E0F1010382D00080000002010000000D9
:102D200028010008482D000810000020900700002E
:102D30004401000800000000010000001000000035
:082D40000024F4000000000073
:04000005080000ED02
:00000001FF
